:020000040000FA
:04000000F7EF1CF00A
:10080000002A2A2043616E616C65732041444320B5
:100810002A2A00202042793A204665726E616E6471
:100820006F20200054656E73696F6E206D6564697A
:1008300064613A2000252E326600494E46004E4142
:100840004E00696E66006E616E006C660000000E00
:100850000001806F000E7F6F57C091F058C092F07A
:1008600059C093F05AC094F094BF3BEF04F039EFB5
:1008700004F051EF04F0000E806F010E7F6F91C005
:1008800001F092C002F093C003F094C004F065EC54
:100890001CF001C091F002C092F003C093F004C0BC
:1008A00094F0000E0001986F000E976FD9C084F08D
:1008B000DAC085F07F518011D8A461EF04F063EFB6
:1008C00004F06AEF04F0DDA568EF04F06AEF04F0CD
:1008D00084EF04F07F518011D8A471EF04F073EF1E
:1008E00004F079EF04F0000E6A6F2B0E696F7DEF54
:1008F00004F0000E6A6F2D0E696F69C000F1974B0E
:10090000982B8407D8A0850791C001F092C002F00F
:1009100093C003F094C004F0F8EC16F00104021048
:10092000D8A495EF04F097EF04F0EEEF04F0BF0EBB
:100930000001606FFF0E616F5B50626F636B60510F
:1009400062276151632363510AE11A0E625DD8A0E8
:10095000ACEF04F0AFEF04F0010EB0EF04F0000EC6
:100960006B6F6C6B6B516C11D8B4B9EF04F0BBEFCB
:1009700004F0C9EF04F0000E9725016E010E9821D6
:10098000026E3A0E036E080E046EC8EC1AF0D5EF34
:1009900004F0000E9725016E010E9821026E420EA2
:1009A000036E080E046EC8EC1AF00001FD0E8427D9
:1009B000FF0E852355C011F056C012F0000E136EC5
:1009C000010E146E84C015F085C016F0BCEC18F052
:1009D00011C055F012C056F0FEEF09F091C001F0C1
:1009E00092C002F093C003F094C004F0F8EC16F04B
:1009F00001500210D8A4FFEF04F001EF05F041EF21
:100A000005F0BF0E0001606FFF0E616F5B50626FFB
:100A1000636B605162276151632363510AE11A0ECF
:100A2000625DD8A016EF05F019EF05F0010E1AEF80
:100A300005F0000E6D6F6E6B6D516E11D8B423EF23
:100A400005F025EF05F033EF05F0000E9725016E58
:100A5000010E9821026E3E0E036E080E046EC8EC65
:100A60001AF0D5EF04F0000E9725016E010E9821C3
:100A7000026E460E036E080E046EC8EC1AF0D5EF37
:100A800004F0000E0001996F000E9A6F800E9B6FAC
:100A90003F0E9C6F000E966F000E956F91C001F097
:100AA00092C002F093C003F094C004F0000E056EF3
:100AB000000E066E000E076E000E086ED9EC19F0DF
:100AC000D8B065EF05F067EF05F0EAEF05F086EFC7
:100AD00005F099C00FF09AC010F09BC011F09CC0B7
:100AE00012F0000E136E000E146E200E156E410EE5
:100AF000166E96EC0EF00FC099F010C09AF011C06F
:100B00009BF012C09CF00001954B962B91C028F0F1
:100B100092C029F093C02AF094C02BF0000E136EFF
:100B2000000E146E200E156E410E166E99C00FF059
:100B30009AC010F09BC011F09CC012F096EC0EF021
:100B40000FC02CF010C02DF011C02EF012C02FF0ED
:100B500076EC16F0D8B0AFEF05F0B1EF05F069EF25
:100B600005F0D1EF05F099C028F09AC029F09BC09C
:100B70002AF09CC02BF0000E2C6E000E2D6E200E65
:100B80002E6E410E2F6EABEC10F028C099F029C0EC
:100B90009AF02AC09BF02BC09CF000019507D8A0CA
:100BA000960791C028F092C029F093C02AF094C013
:100BB0002BF099C02CF09AC02DF09BC02EF09CC059
:100BC0002FF076EC16F0D8A0E8EF05F0EAEF05F08C
:100BD000B3EF05F05BC007F0086A98EC1AF0075015
:100BE0000001866F86C083F0670E8619D8A4FBEFDC
:100BF00005F0FDEF05F023EF06F0DB51DC11D8A482
:100C000004EF06F006EF06F00AEF06F0000EDC6FC8
:100C1000010EDB6FDCBF17EF06F0DC5106E1DB05F0
:100C2000D8B015EF06F017EF06F01DEF06F0000E36
:100C3000826F060E816F2CEF06F0DBC081F0DCC006
:100C400082F02CEF06F0DCBF28EF06F02AEF06F06A
:100C500017EF06F01DEF06F0670E8619D8A433EFE4
:100C600006F035EF06F064EF06F096AF43EF06F0BE
:100C7000FC0E955DFF0E9659D8A041EF06F043EFAC
:100C800006F062EF06F0FF0E606FFF0E616F81C02D
:100C900062F082C063F06051622761516323955115
:100CA000625D6351800A646F9651800A6459D8A0CE
:100CB0005CEF06F05EEF06F062EF06F0660E836F03
:100CC00064EF06F0650E836F81C079F082C07AF020
:100CD000670E8619D8A46FEF06F071EF06F081EF6A
:100CE00006F0660E8319D8A478EF06F07AEF06F0C6
:100CF00083EF06F096BF81EF06F07FEF06F083EFFB
:100D000006F0794B7A2B660E8319D8A48AEF06F089
:100D10008CEF06F0ACEF06F096BF93EF06F091EF84
:100D200006F09FEF06F0000E996F000E9A6F800E8E
:100D30009B6F3F0E9C6F000E966F000E956F670EB7
:100D40008619D8B4A6EF06F0A8EF06F0ACEF06F0CF
:100D50009551792796517A23000E906F000E8F6F70
:100D600091C087F092C088F093C089F094C08AF057
:100D700099C065F09AC066F09BC067F09CC068F0AF
:100D80003DEF07F087C028F088C029F089C02AF01D
:100D90008AC02BF099C02CF09AC02DF09BC02EF089
:100DA0009CC02FF0ABEC10F028C041F029C042F0FD
:100DB0002AC043F02BC044F078EC12F041C08BF015
:100DC00042C08CF043C08DF044C08EF08BC001F067
:100DD0008CC002F08DC003F08EC004F0F3EC15F06F
:100DE00001C07DF002C07EF087C028F088C029F0E5
:100DF00089C02AF08AC02BF099C013F09AC014F071
:100E00009BC015F09CC016F08BC00FF08CC010F08A
:100E10008DC011F08EC012F096EC0EF00FC02CF0C9
:100E200010C02DF011C02EF012C02FF0C2EC1BF03C
:100E300028C087F029C088F02AC089F02BC08AF02A
:100E400099C028F09AC029F09BC02AF09CC02BF0D2
:100E5000000E2C6E000E2D6E200E2E6E410E2F6E8B
:100E6000ABEC10F028C099F029C09AF02AC09BF092
:100E70002BC09CF000018F4B902B79518F5D9051CE
:100E8000800A606F7A51800A6059D8A04AEF07F053
:100E90004CEF07F0C2EF06F099C00FF09AC010F0C7
:100EA0009BC011F09CC012F0000E136E000E146E69
:100EB000A00E156E400E166E96EC0EF00FC08BF065
:100EC00010C08CF011C08DF012C08EF087C028F0D9
:100ED00088C029F089C02AF08AC02BF08BC02CF082
:100EE0008CC02DF08DC02EF08EC02FF076EC16F059
:100EF000D8B07DEF07F07FEF07F08AEF07F0000E24
:100F000000018B6F000E8C6F000E8D6F000E8E6FC8
:100F1000B3EF07F087C001F088C002F089C003F08A
:100F20008AC004F08BC005F08CC006F08DC007F0BD
:100F30008EC008F0D9EC19F0D8A0A1EF07F0A3EF0C
:100F400007F0B3EF07F000017DB1A9EF07F0ABEFB9
:100F500007F0B3EF07F0000E8B6F000E8C6F000EE2
:100F60008D6F000E8E6F91C001F092C002F093C0A1
:100F700003F094C004F08BC005F08CC006F08DC067
:100F800007F08EC008F0FFEC09F001C087F002C046
:100F900088F003C089F004C08AF065C099F066C08B
:100FA0009AF067C09BF068C09CF0650E0001831941
:100FB000D8B4DDEF07F0DFEF07F0E5EF07F095C0FD
:100FC0007BF096C07CF0E9EF07F0000E7C6F000E1E
:100FD0007B6F000E786F000E776F000E766F000E3D
:100FE000756F000E906F000E8F6FE4EF08F087C0F2
:100FF00028F088C029F089C02AF08AC02BF099C057
:101000002CF09AC02DF09BC02EF09CC02FF0ABECC2
:1010100010F028C041F029C042F02AC043F02BC094
:1010200044F078EC12F041C08BF042C08CF043C029
:101030008DF044C08EF08BC001F08CC002F08DC0EA
:1010400003F08EC004F0F3EC15F001C07DF002C097
:101050007EF00001DDB92FEF08F031EF08F04EEF20
:1010600008F07D517E11D8A438EF08F03AEF08F06F
:101070004EEF08F0670E8619D8A441EF08F043EF51
:1010800008F04EEF08F07CBF4AEF08F048EF08F098
:101090004EEF08F0754B762B98EF08F077517811EA
:1010A000D8A455EF08F057EF08F081EF08F07CBFA7
:1010B0005EEF08F05CEF08F081EF08F0000E972576
:1010C000D96E010E9821DA6E2E0EDF6E974B982B9B
:1010D0008407D8A08507000E786F010E776F81EF27
:1010E00008F0000E9725D96E010E9821DA6E300EA9
:1010F000DF6E974B982B8407D8A085077507D8A07B
:10110000760775517611D8A488EF08F08AEF08F0B9
:1011100071EF08F0000E9725D96E010E9821DA6E56
:101120007D51300FDF6E974B982B8407D8A0850731
:1011300087C028F088C029F089C02AF08AC02BF027
:1011400099C013F09AC014F09BC015F09CC016F023
:101150008BC00FF08CC010F08DC011F08EC012F05B
:1011600096EC0EF00FC02CF010C02DF011C02EF038
:1011700012C02FF0C2EC1BF028C087F029C088F005
:101180002AC089F02BC08AF099C028F09AC029F0B3
:101190009BC02AF09CC02BF0000E2C6E000E2D6E12
:1011A000200E2E6E410E2F6EABEC10F028C099F081
:1011B00029C09AF02AC09BF02BC09CF000017B074D
:1011C000D8A07C078F4B902B79518F5D9051800A6E
:1011D000606F7A51800A6059D8B0F1EF08F0F3EFF0
:1011E00008F001EF09F098BFFFEF08F0985109E10E
:1011F0004B0E975DD8A0FFEF08F001EF09F0F7EF75
:1012000007F077517811D8A408EF09F00AEF09F038
:101210001BEF09F0DDA90FEF09F011EF09F01BEF4B
:1012200009F0000E9725D96E010E9821DA6E2E0E68
:10123000DF6E974B982B000E9725D96E010E9821E3
:10124000DA6E000EDF6E650E8319D8A42AEF09F05E
:101250002CEF09F0DAEF04F0000E906F4F0E8F6F55
:10126000000E8F25D96E010E9021DA6E000EDF6E12
:10127000000E806F000E7F6F96BF43EF09F041EFC5
:1012800009F04BEF09F0000E806F010E7F6F956D36
:10129000961FD8B0962B000E826F020E816F7CEFE6
:1012A00009F08F07D8A09007000E8F25D96E010E88
:1012B0009021DA6E95C001F096C002F0000E046E27
:1012C0000A0E036E81EC19F00150300FDF6E95C0ED
:1012D00001F096C002F0000E046E0A0E036E1FECC1
:1012E00019F001C095F002C096F000018107D8A066
:1012F00082078407D8A0850795519611D8A483EF5B
:1013000009F085EF09F051EF09F082BF92EF09F083
:10131000825106E18105D8B090EF09F092EF09F013
:1013200051EF09F08F07D8A090077F518011D8A402
:101330009CEF09F09EEF09F0A4EF09F0000E706F2A
:101340002B0E6F6FA8EF09F0000E706F2D0E6F6FF0
:10135000000E8F25D96E010E9021DA6E6FC0DFFF6F
:101360008407D8A085078F07D8A09007BF0E606FAD
:10137000FF0E616F5B50626F636B6051622761515A
:10138000632363510AE11A0E625DD8A0CAEF09F027
:10139000CDEF09F0010ECEEF09F0000E736F746B04
:1013A00073517411D8A4D7EF09F0D9EF09F0DFEF2A
:1013B00009F0000E726F650E716FE3EF09F0000E19
:1013C000726F450E716F000E8F25D96E010E902140
:1013D000DA6E71C0DFFF8407D8A08507000E97255D
:1013E000016E010E9821026E000E8F25036E010E14
:1013F0009021046EC8EC1AF0DAEF04F012000450E9
:10140000800B0D6E045004240F6E03AE0AEF0AF039
:101410000CEF0AF00DEF0AF00F800F50D8B413EF65
:101420000AF015EF0AF02AEF0AF00F28D8A41BEFF4
:101430000AF01DEF0AF025EF0AF0000E016E000E13
:10144000026E000E036E000E046E038E000E046E1C
:1014500032EF0AF0000E016E000E026E000E036EF7
:10146000000E046E0850800B0E6E0D500E18D8B48E
:101470003CEF0AF03EEF0AF03FEF0AF00D8C085007
:1014800008240E6E07AE47EF0AF049EF0AF04AEF64
:101490000AF00E800E50D8B450EF0AF052EF0AF066
:1014A00067EF0AF00E28D8A458EF0AF05AEF0AF0B6
:1014B00062EF0AF0000E056E000E066E000E076E5B
:1014C000000E086E078E000E086E6FEF0AF0000E19
:1014D000056E000E066E000E076E000E086E0F50B1
:1014E0000E5CD8B076EF0AF078EF0AF09FEF0AF0C2
:1014F0000DAC7DEF0AF07FEF0AF081EF0AF0800E6D
:101500000D1A0FC010F00EC00FF010C00EF001C089
:1015100010F005C001F010C005F002C010F006C0C8
:1015200002F010C006F003C010F007C003F010C0B6
:1015300007F004C010F008C004F010C008F0000E5E
:10154000106E0F500EC009F00A6A095E000E0A5AAA
:101550000ABEB4EF0AF00A5009E11A0E095CD8A0DD
:10156000B4EF0AF0B6EF0AF0EDEF0AF00150021006
:1015700003100410D8A4BFEF0AF0C2EF0AF0010E66
:10158000C3EF0AF0000E106E000E016E000E026E28
:10159000000E036E000E046E0EC00FF0F6EF0AF0A0
:1015A00010A0D5EF0AF0D7EF0AF0DDEF0AF0D890DF
:1015B00010300109106EDFEF0AF0D890103201A050
:1015C000E4EF0AF0E6EF0AF0E7EF0AF0108E0434D9
:1015D00004320332023201320F2A0E500F5CD8A0BF
:1015E000F4EF0AF0F6EF0AF0D0EF0AF00DBCFBEFD3
:1015F0000AF0FDEF0AF03DEF0BF00F50D8A403EF17
:101600000BF005EF0BF00FEF0BF0000E016E000E6C
:10161000026E000E036E000E046E5EEF0CF00550BD
:10162000012606500222075003220850042204A07B
:101630001CEF0BF01EEF0BF0CAEF0BF010A023EF26
:101640000BF025EF0BF02BEF0BF0D89010300109C9
:10165000106E2DEF0BF0D890103201A032EF0BF08E
:1016600034EF0BF035EF0BF0108E043404320332FC
:10167000023201320F2ACAEF0BF00550015C06500E
:101680000258075003580450800A096E0850800A17
:101690000958D8B04EEF0BF050EF0BF07BEF0BF08A
:1016A0000150055C096E025006580A6E0350075837
:1016B0000B6E045008580C6EFF0E0924016EFF0ECD
:1016C0000A20026EFF0E0B20036EFF0E0C20046E2C
:1016D000800E0D1A106C1050D8A471EF0BF073EF40
:1016E0000BF083EF0BF0010E0126000E0222032205
:1016F000042283EF0BF00550015E0650025A07509A
:10170000035A0850045A0150021003100410D8A4C0
:101710008CEF0BF08EEF0BF0C3EF0BF01050D8A452
:1017200094EF0BF096EF0BF0C3EF0BF0000E016E91
:10173000000E026E000E036E000E046E5EEF0CF0E3
:10174000D890013602360336043610AEAAEF0BF0FD
:10175000ACEF0BF0ADEF0BF0018010A0B2EF0BF08F
:10176000B4EF0BF0B8EF0BF0D8801036BAEF0BF0F7
:10177000D89010360F50D8B4C0EF0BF0C2EF0BF07A
:10178000C3EF0BF00F0603AEC8EF0BF0CAEF0BF080
:10179000A0EF0BF0000E0E6E10AED1EF0BF0D3EFFA
:1017A0000BF0EBEF0BF010C009F07F0E0916D8B468
:1017B000DCEF0BF0DEEF0BF0E2EF0BF0010E0E6E44
:1017C000EBEF0BF001A0E7EF0BF0E9EF0BF0EBEF25
:1017D0000BF0DEEF0BF00E50D8B4F1EF0BF0F3EF9F
:1017E0000BF01EEF0CF0010E0126000E0222032268
:1017F000042204A0FEEF0BF000EF0CF01EEF0CF043
:1018000001C009F002C00AF003C00BF004C00CF0E4
:101810000C340C320B320A32093209C001F00AC012
:1018200002F00BC003F00CC004F00F28D8B41BEF7B
:101830000CF01DEF0CF01EEF0CF00F2A0F28D8B49F
:1018400024EF0CF026EF0CF02EEF0CF00F50D8A484
:101850002CEF0CF02EEF0CF040EF0CF0000E016EB0
:10186000000E026E000E036E000E046E0F50D8A420
:101870003CEF0CF03EEF0CF040EF0CF0000E0D6E64
:101880000FA045EF0CF047EF0CF04AEF0CF0038E81
:101890004BEF0CF0039ED8900F30046E0DAE53EF5B
:1018A0000CF055EF0CF056EF0CF0048E01C001F077
:1018B00002C002F003C003F004C004F012009FC095
:1018C000D9FFA0C0DAFFDECFF6FFDDCFF7FF0800BB
:1018D000F550250AD8A46FEF0CF071EF0CF07AEFF9
:1018E0000EF09FC0D9FFA0C0DAFFDE2A000EDD2275
:1018F000000E0001DA6F000ED96FD9C0DDF0DAC03A
:10190000DEF0DB69DC699FC0D9FFA0C0DAFFDECF63
:10191000F6FFDDCFF7FF0800F5502E0AD8A493EFAD
:101920000CF095EF0CF013EF0DF0000EDC6F000ED5
:10193000DB6F9FC0D9FFA0C0DAFFDE2A000EDD22D8
:101940009FC0D9FFA0C0DAFFDECFF6FFDDCFF7FFE3
:101950000800F5502A0AD8A4B0EF0CF0B2EF0CF052
:10196000CFEF0CF09FC0D9FFA0C0DAFFDE2A000E37
:10197000DD22A1C0D9FFA2C0DAFFDFCF5CF0020EEA
:10198000DE26DFCF5DF0000EDD225CC0D9FF5DC03A
:10199000DAFFDECFDBF0DDCFDCF013EF0DF09FC020
:1019A000D9FFA0C0DAFFDECF08F0DDCF09F02BECC5
:1019B00015F008C0DBF009C0DCF0E6EF0CF09FC0CA
:1019C000D9FFA0C0DAFFDE2A000EDD22D00E5C6E49
:1019D000FF0E5D6E9FC0D9FFA0C0DAFFDECFF6FF1D
:1019E000DDCFF7FF0800F5505E6E5F6A5C505E2643
:1019F0005D505F225F500AE10A0E5E5CD8A003EFE3
:101A00000DF006EF0DF0010E07EF0DF0000E0001D6
:101A1000A36FA46BA351A411D8A411EF0DF013EF81
:101A20000DF0DFEF0CF09FC0D9FFA0C0DAFFDECFD2
:101A3000F6FFDDCFF7FF0800F550076E086A98EC57
:101A40001AF007500001AB6FAB51D8B42AEF0DF07C
:101A50002CEF0DF066EF0DF09FC0D9FFA0C0DAFFAC
:101A6000DECF5CF0DDCF5DF0010E5C26000E5D2266
:101A70005CC0F6FF5DC0F7FF0800F550076E086A0E
:101A800098EC1AF007500001AC6FAC51D8B44BEF92
:101A90000DF04DEF0DF066EF0DF09FC0D9FFA0C027
:101AA000DAFFDECF5CF0DDCF5DF0020E5C26000ECB
:101AB0005D225CC0F6FF5DC0F7FF0800F550076EC1
:101AC000086A98EC1AF007500001AD6F660EAB196A
:101AD000D8A46DEF0DF06FEF0DF0AFEF0DF09FC0DC
:101AE000D9FFA0C0DAFFDECFF6FFDDCFF7FF080099
:101AF000F5CFAEF09FC0D9FFA0C0DAFFDE2A000EFE
:101B0000DD22A1C0D9FFA2C0DAFFDFCF5CF0040E56
:101B1000DE26DFCF5DF0000EDD225CC0D9FF5DC0A8
:101B2000DAFFDECFA7F0DECFA8F0DECFA9F0DECF60
:101B3000AAF09DC055F09EC056F0A7C057F0A8C0AF
:101B400058F0A9C059F0AAC05AF0AEC05BF027EC1B
:101B500004F055C09DF056C09EF095EF0EF0AB0E10
:101B6000016E000E026E4A0E036E080E046E000E29
:101B7000066E020E056EECEC17F001500210D8A4B0
:101B8000C4EF0DF0C6EF0DF042EF0EF09FC0D9FF8D
:101B9000A0C0DAFFDECF5CF0DDCF5DF0010E5C2689
:101BA000000E5D225CC0F6FF5DC0F7FF0800F5CFB8
:101BB000AEF0BF0E5C6EFF0E5D6E9FC0D9FFA0C081
:101BC000DAFFDECFF6FFDDCFF7FF0800F5505E6EDF
:101BD0005F6A5C505E265D505F225F500AE11A0E1C
:101BE0005E5CD8A0F6EF0DF0F9EF0DF0010EFAEF04
:101BF0000DF0000E0001A56FA66BA551A611D8B47B
:101C000004EF0EF006EF0EF020EF0EF0A1C0D9FFAA
:101C1000A2C0DAFFDFCF5CF0040EDE26DFCF5DF07E
:101C2000000EDD225CC0D9FF5DC0DAFFDECFA7F079
:101C3000DECFA8F0DECFA9F0DECFAAF038EF0EF0AD
:101C4000A1C0D9FFA2C0DAFFDFCF5CF0040EDE2610
:101C5000DFCF5DF0000EDD225CC0D9FF5DC0DAFF92
:101C6000DECFA7F0DECFA8F0DECFA9F0DECFAAF05E
:101C7000020E9FC0D9FFA0C0DAFFDE26000EDD22D3
:101C800099EF0DF09FC0D9FFA0C0DAFFDECFF6FFBD
:101C9000DDCFF7FF0800F550250AD8A452EF0EF06B
:101CA00054EF0EF06CEF0EF09FC0D9FFA0C0DAFF2A
:101CB000DE2A000EDD22000E026E250E016E9DC092
:101CC00003F09EC004F057EC18F0000E00019E6F68
:101CD000010E9D6F95EF0EF09FC0D9FFA0C0DAFFF7
:101CE000DE2A000EDD22000E00019E6F000E9D6FA9
:101CF00095EF0EF09FC0D9FFA0C0DAFFDECFF6FF50
:101D0000DDCFF7FF0800F550016E026A9DC003F0B9
:101D10009EC004F057EC18F09FC0D9FFA0C0DAFFB6
:101D2000DE2A000EDD2265EF0EF012001250800B4D
:101D30001B6E12501224216E11AEA1EF0EF0A3EF14
:101D40000EF0A4EF0EF021802150D8B4AAEF0EF0CF
:101D5000ACEF0EF0BFEF0EF02128D8A4B2EF0EF0DA
:101D6000B4EF0EF0BCEF0EF0000E0F6E000E106E12
:101D7000000E116E000E126E118EC7EF0EF0000EE7
:101D80000F6E000E106E000E116E000E126E1650C9
:101D9000800B1B1A16501624206E15AED2EF0EF0D3
:101DA000D4EF0EF0D5EF0EF020802050D8B4DBEF4A
:101DB0000EF0DDEF0EF0F0EF0EF02028D8A4E3EFE8
:101DC0000EF0E5EF0EF0EDEF0EF0000E136E000ECC
:101DD000146E000E156E000E166E158EF8EF0EF0D6
:101DE000000E136E000E146E000E156E000E166EB1
:101DF0002050D8B4FEEF0EF000EF0FF008EF0FF018
:101E00002150D8A406EF0FF008EF0FF012EF0FF0FB
:101E1000000E0F6E000E106E000E116E000E126E90
:101E2000AAEF10F015500F02F3CF26F0F4CF27F0F1
:101E300026501C6E1D6A1E6A1F6A2750226E236A76
:101E4000246A256A14501002F3CF26F0F4CF27F04D
:101E500026501C26000E1D221E221F22275022263D
:101E6000000E23222422252213501102F3CF26F044
:101E7000F4CF27F026501C26000E1D221E221F2202
:101E800027502226000E2322242225221EC01FF0C6
:101E90001DC01EF01CC01DF01C6A13501002F3CFB1
:101EA00026F0F4CF27F026501C2627501D22000EC6
:101EB0001E22000E1F2214500F02F3CF26F0F4CF83
:101EC00027F026501C2627501D22000E1E22000E31
:101ED0001F221EC01FF01DC01EF01CC01DF01C6A7A
:101EE00013500F02F3CF26F0F4CF27F026501C2614
:101EF00027501D22000E1E22000E1F221550100218
:101F0000F3CF26F0F4CF27F02650222627502322A5
:101F1000000E2422000E252214501102F3CF26F0C9
:101F2000F4CF27F02650222627502322000E242209
:101F3000000E252215501102F3CF26F0F4CF27F022
:101F40002650176E2750186E196A1A6A19C01AF0AF
:101F500018C019F017C018F0176A17502226185029
:101F60002322195024221A5025221CC017F01DC00C
:101F700018F01EC019F01FC01AF0190EC5EF0FF0AF
:101F8000D8901A32193218321732E82EC0EF0FF0FB
:101F90001750222618502322195024221A50252285
:101FA0001EC01FF01DC01EF01CC01DF01C6A20507A
:101FB00021C017F0186A1726000E1822820E172467
:101FC000266EFF0E1820276EFBEF0FF0D8902236FA
:101FD0002336243625361FAEF0EF0FF0F2EF0FF068
:101FE000F3EF0FF02280D8901C361D361E361F36B8
:101FF0002606D8A0270624AE00EF10F002EF10F05E
:10200000E6EF0FF0000E206E1FAE09EF10F00BEFA1
:1020100010F02FEF10F0FF0E1C14176EFF0E1D14A2
:10202000186EFF0E1E14196E7F0E1F141A6E1750B5
:10203000181019101A10D8B420EF10F022EF10F079
:1020400026EF10F0010E206E2FEF10F022A02BEFE4
:1020500010F02DEF10F02FEF10F022EF10F02050C5
:10206000D8B435EF10F037EF10F05BEF10F0010E41
:102070002226000E23222422252225A042EF10F042
:1020800044EF10F05BEF10F022C017F023C018F0FF
:1020900024C019F025C01AF01A341A321932183235
:1020A000173217C022F018C023F019C024F01AC04C
:1020B00025F0264A272A27BE66EF10F0275008E1B0
:1020C0002628D8A066EF10F068EF10F072EF10F03D
:1020D000000E226E000E236E800E246E7F0E256E83
:1020E000A0EF10F027BE7FEF10F0275006E1260486
:1020F000D8B07DEF10F07FEF10F08BEF10F0000EF6
:10210000226E000E236E000E246E000E256E000E51
:102110001B6EA0EF10F026C021F0FF0E2216FF0E5E
:1021200023167F0E2416000E251621A09AEF10F01C
:102130009CEF10F09DEF10F0248ED8902130256E8A
:102140001B50251222C00FF023C010F024C011F044
:1021500025C012F012002B50800B386E2B502B2410
:102160003F6E2AAEB6EF10F0B8EF10F0B9EF10F0F6
:102170003F803F50D8B4BFEF10F0C1EF10F0D6EF62
:1021800010F03F28D8A4C7EF10F0C9EF10F0D1EF3E
:1021900010F0000E286E000E296E000E2A6E000E42
:1021A0002B6E2A8E000E2B6EDEEF10F0000E286EC6
:1021B000000E296E000E2A6E000E2B6E2F50800B23
:1021C000381A2F502F24406E2EAEE9EF10F0EBEFAF
:1021D00010F0ECEF10F040804050D8B4F2EF10F067
:1021E000F4EF10F009EF11F04028D8A4FAEF10F046
:1021F000FCEF10F004EF11F0000E2C6E000E2D6EAF
:10220000000E2E6E000E2F6E2E8E000E2F6E11EF12
:1022100011F0000E2C6E000E2D6E000E2E6E000EB4
:102220002F6E2C502D102E102F10D8A41AEF11F055
:102230001CEF11F034EF11F0000E286E000E296E25
:10224000000E2A6E000E2B6E800E2A127F0E2B12AD
:1022500038502B1228C028F029C029F02AC02AF0B3
:102260002BC02BF077EF12F03F50D8A43AEF11F0CB
:102270003CEF11F046EF11F0000E286E000E296EB3
:10228000000E2A6E000E2B6E77EF12F040503FC00A
:1022900030F0316A305E000E315A7F0E3024396ED4
:1022A000000E31203A6E28C034F029C035F02AC023
:1022B00036F02BC037F0000E286E000E296E000E8F
:1022C0002A6E000E2B6E000E3B6E000E3C6E000E52
:1022D0003D6E000E3E6E000E406EA7EF11F04050B6
:1022E000D8B475EF11F077EF11F08EEF11F0D890B0
:1022F0003436353636363736D890283629362A36AB
:102300002B363EAE86EF11F088EF11F089EF11F019
:102310002880D8903B363C363D363E362C50345CD7
:102320002D5035582E5036582F503758D8A09BEF87
:1023300011F09DEF11F0A6EF11F03E8C2C50345EA1
:102340002D50355A2E50365A2F50375A402A190ED2
:102350004064ADEF11F0AFEF11F06FEF11F03450BA
:10236000351036103710D8B4B8EF11F0BAEF11F0BD
:10237000D2EF11F03B80D2EF11F0D89028362936F9
:102380002A362B363EAEC7EF11F0C9EF11F0CAEF77
:1023900011F02880D8903B363C363D363E36390623
:1023A000D8A03A062AAED7EF11F0D9EF11F0BDEF61
:1023B00011F0000E406E3EAEE0EF11F0E2EF11F0D2
:1023C00006EF12F0FF0E3B14306EFF0E3C14316E20
:1023D000FF0E3D14326E7F0E3E14336E30503110BE
:1023E00032103310D8B4F7EF11F0F9EF11F0FDEF20
:1023F00011F0010E406E06EF12F028A002EF12F06D
:1024000004EF12F006EF12F0F9EF11F04050D8B4DB
:102410000CEF12F00EEF12F032EF12F0010E282640
:10242000000E29222A222B222BA019EF12F01BEFDB
:1024300012F032EF12F028C030F029C031F02AC07B
:1024400032F02BC033F03334333232323132303267
:1024500030C028F031C029F032C02AF033C02BF050
:10246000394A3A2A3ABE3DEF12F03A5008E139288B
:10247000D8A03DEF12F03FEF12F04AEF12F0000E3D
:102480003A6E3968000E286E000E296E000E2A6E14
:10249000000E2B6E3ABE57EF12F03A5006E13904A7
:1024A000D8B055EF12F057EF12F065EF12F0000EB2
:1024B0003A6E000E396E000E286E000E296E000E68
:1024C0002A6E000E2B6E000E386E39C03FF03FA012
:1024D0006CEF12F06EEF12F071EF12F02A8E72EFC5
:1024E00012F02A9ED8903F302B6E28EF11F0120088
:1024F000CBC051F0CCC052F0CDC053F0CEC054F0A0
:1025000041C051F042C052F043C053F044C054F0B7
:10251000810E456EFF0E466E51C047F052C048F026
:1025200053C049F054C04AF0180E9CEF12F0D890F6
:102530004A32493248324732E82E97EF12F047507C
:1025400045244F6E000E4620506E50BEB1EF12F083
:10255000505009E1170E4F5CD8A0B1EF12F0B3EF65
:1025600012F0BDEF12F041C041F042C042F043C052
:1025700043F044C044F080EF13F050BEC2EF12F0BD
:10258000C4EF12F034EF13F04FC045F0FF0E466E6B
:10259000FF0E476E7F0E486E000E496E4566D3EF04
:1025A00012F0DBEF12F049344932483247324632FA
:1025B000452ECEEF12F046C04BF047C04CF048C05D
:1025C0004DF049C04EF04B505114456E4C505214D2
:1025D000466E4D505314476E4E505414486E45503D
:1025E000461047104810D8A4F8EF12F0FAEF12F096
:1025F000FCEF12F0B3EF12F051C045F052C046F0BC
:1026000053C047F054C048F0200E0CEF13F0D890A0
:102610004832473246324532E82E07EF13F0455034
:10262000461047104810D8B418EF13F01AEF13F003
:1026300022EF13F04B5051264C5052224D50532252
:102640004E5054224B1C456E4C1C466E4D1C476E22
:102650004E1C486E45505116465052164750531660
:102660004850541678EF13F051C045F052C046F070
:1026700053C047F054C048F0200E44EF13F0D890F8
:102680004832473246324532E82E3FEF13F045508C
:10269000461047104810D8A450EF13F052EF13F033
:1026A0005CEF13F0000E516E000E526E000E536E72
:1026B000000E546E78EF13F0D8905134456E5234BA
:1026C000466E5334476E5434486E4550461047109A
:1026D0004810D8B46EEF13F070EF13F078EF13F0EA
:1026E000000E516E000E526E800E536EBF0E546E71
:1026F00051C041F052C042F053C043F054C044F0C6
:102700001200096E0950D8B488EF13F08AEF13F065
:10271000ACEF13F004BE91EF13F08FEF13F0ACEFBA
:1027200013F001C005F002C006F003C007F004C0BA
:1027300008F0051E061E071E081E052A000E0622AA
:102740000722082205C00BF006C00CF007C00DF0F0
:1027500008C00EF0B4EF13F001C00BF002C00CF093
:1027600003C00DF004C00EF001500210031004105D
:10277000D8A4BDEF13F0BFEF13F0C9EF13F0000EB4
:10278000016E000E026E000E036E000E046E5AEF14
:1027900014F0960E0A6ED3EF13F00A2AD8900E3278
:1027A0000D320C320B32000E0B14056E000E0C14A1
:1027B000066E000E0D14076EFE0E0E14086E055008
:1027C000061007100810D8A4E8EF13F0EAEF13F092
:1027D000CDEF13F0F8EF13F00A2A010E0B26000ECE
:1027E0000C220D220E22D8900E320D320C320B32FA
:1027F000000E0B14056E000E0C14066E000E0D1468
:10280000076EFF0E0E14086E055006100710081014
:10281000D8A40DEF14F00FEF14F0ECEF13F017EF56
:1028200014F00A06D8900B360C360D360E360DBE57
:102830001CEF14F01EEF14F026EF14F0020E0A60E5
:1028400024EF14F026EF14F011EF14F00AB02BEF80
:1028500014F02DEF14F02EEF14F00D9ED8900A32E4
:102860000AC005F0066A076A086A05C008F0076A28
:10287000066A056A05500B1206500C1207500D121D
:1028800008500E120950D8B448EF14F04AEF14F073
:1028900052EF14F004BE51EF14F04FEF14F052EF6A
:1028A00014F00E8E0BC001F00CC002F00DC003F04E
:1028B0000EC004F01200D0EC1CF008EC1DF0010E6C
:1028C000926E000E036E000E026E000E056E000E7C
:1028D000046EB8EC1CF0010E026E080E036E2EECB6
:1028E0001AF0030E0001CA6F8A0EC96F550EE82E4A
:1028F000FED7C92FFCD7CA2FFAD700D0000E036E1F
:10290000010E026E000E056E000E046EB8EC1CF097
:10291000130E026E080E036E2EEC1AF0270E000145
:10292000CA6F0D0EC96F260EE82EFED7C92FFCD731
:10293000CA2FFAD700F0010E2AEC1CF0000E036E2D
:10294000000E026E000E056E000E046EB8EC1CF058
:10295000240E026E080E036E2EEC1AF0030E000118
:10296000CA6F8A0EC96F550EE82EFED7C92FFCD745
:10297000CA2FFAD700D0000E9EEC1BF001C0DFF08A
:1029800002C0E0F0000E136E000E146EA00E156E65
:10299000400E166EDFC001F0E0C002F0036A046A68
:1029A000000E81EC13F001C00FF002C010F003C064
:1029B00011F004C012F096EC0EF00FC028F010C019
:1029C00029F011C02AF012C02BF0000E2C6EC00EA0
:1029D0002D6E7F0E2E6E440E2F6EABEC10F028C0C5
:1029E000D3F029C0D4F02AC0D5F02BC0D6F0000E09
:1029F000036E010E026E000E056E0C0E046EB8EC36
:102A00001CF0E10E0001B76F000EB86F350EB96F04
:102A1000080EBA6FD3C0BBF0D4C0BCF0D5C0BDF0B7
:102A2000D6C0BEF023EC1BF0E10E026E000E036E6A
:102A30002EEC1AF00D0E0001CA6FAF0EC96FB60E64
:102A4000E82EFED7C92FFCD7CA2FFAD700F09EEF89
:102A500014F000EF00F0000E166E000E156E000E62
:102A60000F6E000E0E6E37EF15F0084A092A010EA0
:102A7000146E08C0F6FF09C0F7FF0800F550200AE1
:102A8000D8B445EF15F047EF15F064EF15F0F70EE9
:102A90000A6EFF0E0B6E08C0F6FF09C0F7FF0800B4
:102AA000F5500C6E0D6A0A500C260B500D220D507D
:102AB00009E1050E0C5CD8A060EF15F062EF15F08F
:102AC00064EF15F0000E146E14C010F0116A10506F
:102AD0001110D8A46EEF15F070EF15F035EF15F06A
:102AE0007AEF15F0000E0F6E010E0E6E084A092ADD
:102AF000AFEF15F008C0F6FF09C0F7FF0800F5506A
:102B00000A6E0B6A0B50000AD8B489EF15F0AFEFCC
:102B100015F00A502B0AD8B476EF15F0060AD8B48F
:102B200072EF15F0AFEF15F015C001F016C002F00E
:102B3000000E046E0A0E036EE4EC1CF008C0F6FFF3
:102B400009C0F7FF0800F550015E000E025A300E72
:102B50000124156E000E0220166E76EF15F0D00ED1
:102B60000A6EFF0E0B6E08C0F6FF09C0F7FF0800E3
:102B7000F5500C6E0D6A0A500C260B500D220D50AC
:102B80000AE10A0E0C5CD8A0C8EF15F0CBEF15F0E7
:102B9000010ECCEF15F0000E126E136A12501310D6
:102BA000D8A4D5EF15F0D7EF15F094EF15F00E502F
:102BB0000F10D8A4DEEF15F0E0EF15F0EEEF15F0F2
:102BC00015C00AF016C00BF00A1E0B1E0A4A0B2A8B
:102BD0000AC008F00BC009F0F2EF15F015C008F0BC
:102BE00016C009F01200033404340A6E0A50D8A447
:102BF000FCEF15F0FEEF15F008EF16F0000E016E79
:102C0000000E026E000E036E000E046E75EF16F0DD
:102C100001C005F002C006F003C007F004C008F0D0
:102C2000200E18EF16F0D89008320732063205321F
:102C3000E82E13EF16F00550096E038EFF0E0116F5
:102C4000FF0E0216FF0E0316000E0416960E0A5E05
:102C50000ABE2FEF16F02DEF16F045EF16F00A50D2
:102C6000800A970FD8B037EF16F039EF16F03BEF28
:102C700016F0FEEF15F0D890043203320232013222
:102C80000A3E3BEF16F05DEF16F01F0E0A644BEFA5
:102C900016F04DEF16F055EF16F0FEEF15F0D89048
:102CA00001360236033604360A060A50D8A45BEF12
:102CB00016F05DEF16F04FEF16F00950D8B463EF41
:102CC00016F065EF16F06DEF16F0041E031E021EDF
:102CD000016C000E02220322042201C001F002C096
:102CE00002F003C003F004C004F01200000E281428
:102CF000306E000E2914316E800E2A14326E7F0E53
:102D00002B14336E3050311032103310D8A48BEFA7
:102D100016F08DEF16F095EF16F0000E286E000EEF
:102D2000296E000E2A6E000E2B6E000E2C14306ED3
:102D3000000E2D14316E800E2E14326E7F0E2F1465
:102D4000336E3050311032103310D8A4AAEF16F081
:102D5000ACEF16F0B4EF16F0000E2C6E000E2D6ED8
:102D6000000E2E6E000E2F6E2BAEB9EF16F0BBEFDD
:102D700016F0C4EF16F0286C291ED8B0292A2A1E96
:102D8000D8B02A2A800E2B562FAEC9EF16F0CBEF03
:102D900016F0D4EF16F02C6C2D1ED8B02D2A2E1E56
:102DA000D8B02E2A800E2F56000E281A000E291A8F
:102DB000000E2A1A800E2B1A000E2C1A000E2D1A45
:102DC000000E2E1A800E2F1A2C50285C2D502958D8
:102DD0002E502A582F502B58D8B0F1EF16F0F3EFA1
:102DE00016F0F6EF16F0D890F7EF16F0D880120034
:102DF000CFC00BF0D0C00CF0D1C00DF0D2C00EF09F
:102E000001C00BF002C00CF003C00DF004C00EF0C6
:102E10000BC005F00CC006F00DC007F00EC008F0A6
:102E2000180E18EF17F0D890083207320632053224
:102E3000E82E13EF17F00550096E0A6A09500A10C0
:102E4000D8A425EF17F027EF17F047EF17F0D89029
:102E50000B34056E0C34066E0D34076E0E34086E9E
:102E60000550061007100810D8A439EF17F03BEFF3
:102E700017F041EF17F0000E026E020E016E76EFB2
:102E800017F0000E026E030E016E76EF17F00928A0
:102E90000A10D8A44EEF17F050EF17F072EF17F0AA
:102EA0000BC005F00CC006F00DC007F00EC008F016
:102EB000090ED8900536063607360836E82E59EF43
:102EC00017F00550061007100810D8B46AEF17F075
:102ED0006DEF17F0010E6EEF17F0000E016E026A33
:102EE00076EF17F0000E026E040E016E1200056EF2
:102EF000F00E8316F00E9516959C959A95988C9CDD
:102F00008C9A8C9825EC1DF0300E2AEC1CF000D029
:102F100000D000F0300E2AEC1CF000D000D000F001
:102F2000320E2AEC1CF0E5EC1BF00009D8A49BEF54
:102F300017F09DEF17F093EF17F0E5EC1BF0000989
:102F4000D8A4A5EF17F0A7EF17F09DEF17F00550E5
:102F50002AEC1CF0E5EC1BF00009D8A4B2EF17F046
:102F6000B4EF17F0AAEF17F0080E2AEC1CF0E5EC0E
:102F70001BF00009D8A4BFEF17F0C1EF17F0B7EFAF
:102F800017F00F0E2AEC1CF0E5EC1BF00009D8A49A
:102F9000CCEF17F0CEEF17F0C4EF17F0010E2AECCC
:102FA0001CF0E5EC1BF00009D8A4D9EF17F0DBEF1B
:102FB00017F0D1EF17F0040E2AEC1CF0E5EC1BF033
:102FC0000009D8A4E6EF17F0E8EF17F0DEEF17F0EE
:102FD000800EF6EC1AF0120001C008F002C009F0F1
:102FE00003C00AF004C00BF00506D8A006060528A9
:102FF00006E10628D8A4FFEF17F001EF18F00EEF56
:1030000018F0000E026E000E016E56EF18F0084A1E
:10301000092A0A4A0B2A0506D8A0060608C0D9FFC5
:1030200009C0DAFFDF50D8B418EF18F01AEF18F023
:1030300045EF18F00AC0F6FF0BC0F7FF0800F55087
:103040000009D8B426EF18F028EF18F045EF18F073
:1030500005500610D8B42FEF18F031EF18F045EFF7
:1030600018F008C0D9FF09C0DAFFDF50076E0AC0A8
:10307000F6FF0BC0F7FF0800F5500718D8B443EF70
:1030800018F045EF18F007EF18F008C0D9FF09C095
:10309000DAFFDF50076E0AC0F6FF0BC0F7FF08002B
:1030A000F550075C016E026AD8A0020612000350B8
:1030B0000410D8B45EEF18F060EF18F069EF18F064
:1030C00003500410D8A467EF18F069EF18F06EEF02
:1030D00018F001502DEC1DF0BBEF18F020EE04F0BD
:1030E0000350D9260450DA22DE50DE10D8B47BEF2C
:1030F00018F07DEF18F098EF18F020EE04F0035070
:10310000D9260450DA2210EE02F00350E1260450D2
:10311000E222DE50E65CE650800A096EDE50800A4C
:103120000958D8B096EF18F098EF18F0BBEF18F0E8
:1031300020EE02F00350D9260450DA22DECF05F04B
:10314000DDCF06F003C0D9FF04C0DAFFDECF07F001
:10315000DDCF08F005500724D96E06500820DA6E3E
:1031600001C0DFFF20EE02F00350D9260450DA221E
:10317000DE2A000EDD2212000001DDA1C2EF18F0F0
:10318000C4EF18F0CEEF18F013C00AF014C00BF023
:1031900011C00CF012C00DF008EC1CF016BED3EFFD
:1031A00018F0D5EF18F0DBEF18F015C01AF016C0C4
:1031B0001BF0DFEF18F0000E1B6E000E1A6E000EF3
:1031C000196E000E186EF1EF18F0000E026E200E50
:1031D000016E11C003F012C004F057EC18F0184A49
:1031E000192A1A50185C1950800A176E1B50800A51
:1031F0001758D8A0FEEF18F000EF19F0E5EF18F01F
:103200000001DDB106EF19F008EF19F012EF19F027
:1032100013C00AF014C00BF011C00CF012C00DF076
:1032200008EC1CF013C001F014C002F09DEC1CF07F
:103230001A500124116E1B500220126E1200000E53
:10324000066E04BE28EF19F026EF19F02EEF19F0E4
:10325000036C041ED8B0042A010E066E02BE35EFC0
:1032600019F033EF19F03BEF19F0016C021ED8B0E2
:10327000022A010E061A000E086E000E076E035099
:103280000410D8B446EF19F048EF19F070EF19F0B8
:10329000010E056E50EF19F0D89003360436052A5A
:1032A00004AE55EF19F057EF19F04CEF19F0D89024
:1032B000073608360350015C04500258D8A063EF6B
:1032C00019F065EF19F06AEF19F00350015E045030
:1032D000025A0780D89004320332052E57EF19F0B6
:1032E0000650D8B476EF19F078EF19F07CEF19F0AA
:1032F000076C081ED8B0082A07C001F008C002F009
:103300001200000E066E02BE8AEF19F088EF19F067
:1033100090EF19F0016C021ED8B0022A010E066E61
:1033200004BE97EF19F095EF19F09BEF19F0036CBD
:10333000041ED8B0042A03500410D8B4A2EF19F028
:10334000A4EF19F0C8EF19F0010E056EACEF19F0FB
:10335000D89003360436052A04AEB1EF19F0B3EF66
:1033600019F0A8EF19F00350015C04500258D8A0DE
:10337000BCEF19F0BEEF19F0C2EF19F00350015E77
:103380000450025AD89004320332052EB3EF19F0DC
:103390000650D8B4CEEF19F0D0EF19F0D4EF19F0F1
:1033A000016C021ED8B0022A01C001F002C002F076
:1033B0001200000E0114096E000E02140A6E800E37
:1033C00003140B6E7F0E04140C6E09500A100B10C0
:1033D0000C10D8A4EEEF19F0F0EF19F0F8EF19F097
:1033E000000E016E000E026E000E036E000E046EE3
:1033F000000E0514096E000E06140A6E800E0714E6
:103400000B6E7F0E08140C6E09500A100B100C1076
:10341000D8A40DEF1AF00FEF1AF017EF1AF0000E04
:10342000056E000E066E000E076E000E086E05504B
:1034300001180FE1065002180CE10750031809E1CA
:1034400008500418D8B427EF1AF029EF1AF02CEF1F
:103450001AF0D8902DEF1AF0D88012004EEF1AF023
:10346000E5EC1BF00009D8A438EF1AF03AEF1AF097
:1034700030EF1AF002C0F6FF03C0F7FFF86A070E3C
:10348000F76403D00800F55005D0F6CFE9FFF7CF79
:10349000EAFFEF5075EC1BF0024A032A02C0F6FF68
:1034A00003C0F7FFF86A070EF76403D00800F55071
:1034B00005D0F6CFE9FFF7CFEAFFEF500009D8A417
:1034C00064EF1AF066EF1AF030EF1AF01200B1C094
:1034D000B5F0B2C0B6F0000E0001D86F000ED76F85
:1034E00085EF1AF0AFC09DF0B0C09EF0B50E9F6F93
:1034F000000EA06FB3C0A1F0B4C0A2F05FEC0CF05E
:1035000000019D51D7279E51D823B5C0F6FFB6C004
:10351000F7FF0800F5500009D8A491EF1AF093EFD7
:103520001AF072EF1AF0D7C0AFF0D8C0B0F01200A6
:10353000BF0E096EFF0E0A6E07C00BF008C00CF03C
:1035400009500B260A500C220C500AE11A0E0B5C93
:10355000D8A0ADEF1AF0B0EF1AF0010EB1EF1AF0EB
:10356000000E0D6E0E6A0D500E10D8B4BAEF1AF0A0
:10357000BCEF1AF0C3EF1AF0200E0710076E0850C8
:10358000086EC7EF1AF007C007F008C008F0120075
:1035900003C007F004C008F001C009F002C00AF03F
:1035A0000750056E0850066E074A082A05C0F6FF48
:1035B00006C0F7FFF86A09C0D9FF0AC0DAFF094A56
:1035C0000A2A070EF76403D00800F55005D0F6CF9D
:1035D000E9FFF7CFEAFFEF50DF6EDF50D8A4F3EF3B
:1035E0001AF0F5EF1AF0D0EF1AF01200046EF00E98
:1035F0009516F00E83160450016E026A800E0112B9
:10360000000E0212040E036E023402320132032E47
:1036100004EF1BF001500F0B83128C9C8C9A18EC5A
:103620001DF08C8818EC1DF08C98F00E8316045059
:103630000F0B831218EC1DF08C8818EC1DF08C9881
:103640000F0E95121200BB0E0001C16F000EC26F6B
:10365000B7C0C3F0B8C0C4F0000EC66F000EC56F8F
:10366000000EC86F000EC76FC30EAF6F000EB06FB5
:10367000B9C0B1F0BAC0B2F0C10EB36F000EB46FF2
:1036800067EC1AF00001C551B725D96EC651B821B3
:10369000DA6E000EDF6E1200010E076E200E0118AA
:1036A0000210D8B456EF1BF058EF1BF071EF1BF06F
:1036B000F70E036EFF0E046E01C005F002C006F0A7
:1036C0000350052604500622065009E1050E055C4C
:1036D000D8A06DEF1BF06FEF1BF071EF1BF0000E29
:1036E000076E07C001F0026A1200016EE5EC1BF0E4
:1036F0000009D8A47EEF1BF080EF1BF076EF1BF0E3
:10370000F00E9516F00E831601380F0B0F0B831277
:103710008C8A8C9C18EC1DF08C8818EC1DF08C9811
:10372000F00E831601500F0B831218EC1DF08C88DD
:1037300018EC1DF08C980F0E95121200036E0D0EF2
:103740000364A5EF1BF0A7EF1BF0ADEF1BF0000E1D
:10375000026E000E016EC1EF1BF0000EC26E03443C
:10376000E846FC0BC26EC280C282C2B2BAEF1BF046
:10377000BCEF1BF0B5EF1BF0C290C3CF01F0C4CF7C
:1037800002F01200000E2C1A000E2D1A000E2E1A36
:10379000800E2F1A28C001F029C002F02AC003F0C1
:1037A0002BC004F02CC005F02DC006F02EC007F091
:1037B0002FC008F0FFEC09F001C028F002C029F08A
:1037C00003C02AF004C02BF012008C8C8C9A18ECE9
:1037D0001DF08C8818EC1DF083A6F1EF1BF0F3EFC1
:1037E0001BF0FEEF1BF08C9818EC1DF08C8818EC89
:1037F0001DF08C988C9C010E07EF1CF08C9818EC37
:103800001DF08C8818EC1DF08C988C9C000E12001A
:10381000000E106E000E0F6E19EF1CF00EC001F0BE
:10382000026A0CC003F00DC004F057EC18F00F4A08
:10383000102A0F500A24D96E10500B20DA6EDF5078
:103840000E6E0E50D8A427EF1CF029EF1CF00EEFDF
:103850001CF01200016EF00E9516F00E8316013862
:103860000F0B0F0B83128C9C8C9A18EC1DF08C881C
:1038700018EC1DF08C98F00E831601500F0B83127C
:1038800018EC1DF08C8818EC1DF08C980F0E95121A
:103890001200BF0E036EFF0E046E01C005F002C0E1
:1038A00006F0035005260450062206500AE11A0EBF
:1038B000055CD8A05EEF1CF061EF1CF0010E62EF1A
:1038C0001CF0000E016E026A12000150021003107B
:1038D0000410D8B46EEF1CF070EF1CF078EF1CF001
:1038E000000E011A000E021A000E031A800E041AAE
:1038F00001C001F002C002F003C003F004C004F0F4
:103900001200D00E036EFF0E046E01C005F002C05F
:1039100006F0035005260450062206500AE10A0E5E
:10392000055CD8A096EF1CF099EF1CF0010E9AEF01
:103930001CF0000E016E026A120001C003F002C00A
:1039400004F0A5EF1CF0014A022A01C0D9FF02C011
:10395000DAFFDF50D8A4AFEF1CF0B1EF1CF0A3EFFB
:103960001CF00350015C016E04500258026E1200FC
:1039700003BEC3EF1CF0035008E10204D8A0C3EF5C
:103980001CF0C5EF1CF0CBEF1CF00450C00F2AEC6C
:103990001CF0CFEF1CF00450800F2AEC1CF012003A
:1039A000280E77EC17F0E5EC1BF00009D8A4DBEF4C
:1039B0001CF0DDEF1CF0D3EF1CF0060E2AEC1CF01F
:1039C0000C0E2AEC1CF0120001500302F3CF05F09C
:1039D000F4CF06F001500402F35006260250030211
:1039E000F350062605C001F006C002F0120001EEF9
:1039F00000F0500EEE6AE806FDE100EECBF02A0E74
:103A0000EE6AE806FDE1000EF86E00015BEF14F0CF
:103A1000F00EC116CF0EC116000EC26EC050C70BFD
:103A20001809C06EC050F80B0509C06EC08E120098
:103A300000F000F000F000F000F000F000F000F006
:103A400000F000F000F000F01200620E016E660E51
:0C3A5000E82EFED7012EFCD71200120059
:020000040020DA
:08000000FFFFFFFFFFFFFFFF00
:020000040030CA
:0E000000000C181EFF8381FF0FC00FE00F40A1
:00000001FF
