:020000040000FA
:0400000007EF00F016
:0A000800118219ED05F0DBEF06F0A0
:10080000004E6F20736520746F636F20626F746F8A
:100810006E003320536567756E646F7300546572A4
:100820006D696E61646F005469656D706F3A0000A8
:100830000E6EF00E8316F00E9516959C959A95986F
:100840008C9C8C9A8C98E4EC06F0300E28EC06F028
:1008500000D000D000F0300E28EC06F000D000D020
:1008600000F0320E28EC06F0E2EC05F00009D8A406
:100870003CEF04F03EEF04F034EF04F0E2EC05F05E
:100880000009D8A446EF04F048EF04F03EEF04F06E
:100890000E5028EC06F0E2EC05F00009D8A453EF66
:1008A00004F055EF04F04BEF04F0080E28EC06F0CE
:1008B000E2EC05F00009D8A460EF04F062EF04F068
:1008C00058EF04F00F0E28EC06F0E2EC05F00009FA
:1008D000D8A46DEF04F06FEF04F065EF04F0010EA3
:1008E00028EC06F0E2EC05F00009D8A47AEF04F059
:1008F0007CEF04F072EF04F0040E28EC06F0E2EC5A
:1009000005F00009D8A487EF04F089EF04F07FEF29
:1009100004F0800EECEC04F0120096EC06F0D0EC43
:1009200006F0C4EC06F0000E0C6E000E0B6E000E0E
:100930000E6E000E0D6E66EC06F0270E0B6E080EA6
:100940000C6E98EC05F081A0A8EF04F0AAEF04F07B
:10095000CDEF04F0030E106E8A0E0F6E560EE82EC9
:10096000FED70F2EFCD7102EFAD71F0ED66E1B0EF9
:10097000D76E000E0C6E010E0B6E000E0E6E050E85
:100980000D6E66EC06F0120E0B6E080E0C6E98ECF7
:1009900005F0898A8998A3EF04F0030E106E8A0E81
:1009A0000F6E560EE82EFED70F2EFCD7102EFAD75C
:1009B000000E0C6E010E0B6E000E0E6E050E0D6E0F
:1009C00066EC06F0010E0B6E080E0C6E98EC05F04E
:1009D000A3EF04F007EF00F00D6EF00E9516F00E89
:1009E00083160D500A6E0B6A800E0A12000E0B124F
:1009F000040E0C6E0B340B320A320C2EFAEF04F09C
:100A00000A500F0B83128C9C8C9AAAEC06F08C88EF
:100A1000AAEC06F08C98F00E83160D500F0B831283
:100A2000AAEC06F08C88AAEC06F08C980F0E9512B2
:100A300012000600F6CF06F0F7CF07F0F8CF08F067
:100A4000F5CF09F0F2A427EF05F029EF05F03CEF10
:100A500005F0000E036E010E026E000E056E050E0F
:100A6000046E7EEC06F01D0E026E080E036EBDECE9
:100A700005F0898A8988F29409C0F5FF08C0F8FF5B
:100A800007C0F7FF06C0F6FF119211000A6EE2ECF4
:100A900005F00009D8A44FEF05F051EF05F047EF3E
:100AA00005F0F00E9516F00E83160A380F0B0F0B9B
:100AB00083128C8A8C9CAAEC06F08C88AAEC06F037
:100AC0008C98F00E83160A500F0B8312AAEC06F0D6
:100AD0008C88AAEC06F08C980F0E95121200016E0D
:100AE00005EC06F00009D8A478EF05F07AEF05F0E0
:100AF00070EF05F0F00E9516F00E831601380F0B0F
:100B00000F0B83128C8A8C9CB7EC06F08C88B7ECA8
:100B100006F08C98F00E831601500F0B8312B7EC81
:100B200006F08C88B7EC06F08C980F0E9512120028
:100B3000AEEF05F0E2EC05F00009D8A4A2EF05F055
:100B4000A4EF05F09AEF05F00BC0F6FF0CC0F7FF1D
:100B50000800F55046EC05F00B4A0C2A0BC0F6FFD6
:100B60000CC0F7FF0800F5500009D8A4BAEF05F053
:100B7000BCEF05F09AEF05F01200D3EF05F005EC9D
:100B800006F00009D8A4C7EF05F0C9EF05F0BFEFE4
:100B900005F002C0F6FF03C0F7FF0800F5506FEC48
:100BA00005F0024A032A02C0F6FF03C0F7FF08005F
:100BB000F5500009D8A4DFEF05F0E1EF05F0BFEF35
:100BC00005F012008C8C8C9AAAEC06F08C88AAECAA
:100BD00006F083A6EEEF05F0F0EF05F0FBEF05F071
:100BE0008C98AAEC06F08C88AAEC06F08C988C9C69
:100BF000010E04EF06F08C98AAEC06F08C88AAECA3
:100C000006F08C988C9C000E12008C8C8C9AB7ECA1
:100C100006F08C88B7EC06F083A611EF06F013EF10
:100C200006F01EEF06F08C98B7EC06F08C88B7EC57
:100C300006F08C988C9C010E27EF06F08C98B7EC90
:100C400006F08C88B7EC06F08C988C9C000E120095
:100C50000A6EF00E9516F00E83160A380F0B0F0B66
:100C600083128C9C8C9AAAEC06F08C88AAEC06F075
:100C70008C98F00E83160A500F0B8312AAEC06F024
:100C80008C88AAEC06F08C980F0E95121200016E5B
:100C9000F00E9516F00E831601380F0B0F0B831212
:100CA0008C9C8C9AB7EC06F08C88B7EC06F08C988C
:100CB000F00E831601500F0B8312B7EC06F08C88F0
:100CC000B7EC06F08C980F0E951212000CBE71EF67
:100CD00006F00C5008E10B04D8A071EF06F073EF9A
:100CE00006F079EF06F00D50C00F28EC06F07DEF0E
:100CF00006F00D50800F28EC06F0120003BE89EFBD
:100D000006F0035008E10204D8A089EF06F08BEF4B
:100D100006F091EF06F00450C00F47EC06F095EF97
:100D200006F00450800F47EC06F01200280E18EC75
:100D300004F0E2EC05F00009D8A4A1EF06F0A3EF5F
:100D400006F099EF06F0060E28EC06F00C0E28ECE3
:100D500006F0120000F000F000F000F000F000F0EB
:100D600000F000F000F000F000F000F0120000F0E1
:100D700000F000F000F000F000F000F000F000F0F3
:100D800000F000F000F01200F29ED59AD596070E02
:100D9000D512D59CD58EF294F28AF28CF28E120086
:100DA0000F0EC112010E936E000E926E010E8A6E2E
:100DB000010E896E120011901192000EF86E080E4D
:100DC000F76E00018DEF04F0620E0A6E660EE82EDB
:080DD000FED70A2EFCD7120029
:020000040020DA
:08000000FFFFFFFFFFFFFFFF00
:020000040030CA
:0E000000000C181EFF8381FF0FC00FE00F40A1
:00000001FF
