:020000040000FA
:04000000A3EF06F074
:1008000000070E050E140A11000050726573696F1F
:100810006E6120537461727421002A2A504F4B4537
:100820004D4F4E20474F212A2A00417368204B65C7
:100830007463687570004173682043616D696E610F
:1008400000007AEC06F0AAEC06F0000E036E000E33
:10085000026E000E056E000E046E62EC06F01A0EBB
:10086000026E080E036EE0EC05F0080E0A6E9D0E97
:10087000096E060EE82EFED7092EFCD70A2EFAD7EF
:10088000000E036E010E026E000E056E000E046E69
:1008900062EC06F00A0E026E080E036EE0EC05F044
:1008A000080E0A6E9D0E096E060EE82EFED7092E62
:1008B000FCD70A2EFAD781B060EF04F062EF04F0A3
:1008C000D8EF04F0010E28EC06F0210E096E760E2A
:1008D000E82EFED7092EFCD700D0010E056E080EBB
:1008E000066E000E076E47EC06F00D0E0A6EAF0E98
:1008F000096EB60EE82EFED7092EFCD70A2EFAD7BF
:1009000000D0000E036E000E026E000E056E000E8B
:10091000046E62EC06F02A0E026E080E036EE0EC26
:1009200005F0080E0A6E9D0E096E060EE82EFED723
:10093000092EFCD70A2EFAD781BEA1EF04F0A3EF4F
:1009400004F0CBEF04F0010E28EC06F0210E096E46
:10095000760EE82EFED7092EFCD700D0000E036ECF
:10096000010E026E000E056E000E046E62EC06F0C3
:10097000360E026E080E036EE0EC05F0080E0A6EED
:100980009D0E096E060EE82EFED7092EFCD70A2E04
:10099000FAD781EF04F0010E28EC06F0210E096E63
:1009A000760EE82EFED7092EFCD700D081EF04F09A
:1009B00000EF00F0056EF00E8316F00E9516959C74
:1009C000959A95988C9C8C9A8C989BEC06F0300E9E
:1009D00028EC06F000D000D000F0300E28EC06F035
:1009E00000D000D000F0320E28EC06F005EC06F046
:1009F0000009D8A4FEEF04F000EF05F0F6EF04F0D4
:100A000005EC06F00009D8A408EF05F00AEF05F0A0
:100A100000EF05F0055028EC06F005EC06F00009A3
:100A2000D8A415EF05F017EF05F00DEF05F0080E4F
:100A300028EC06F005EC06F00009D8A422EF05F03A
:100A400024EF05F01AEF05F00F0E28EC06F005EC88
:100A500006F00009D8A42FEF05F031EF05F027EFDD
:100A600005F0010E28EC06F005EC06F00009D8A40C
:100A70003CEF05F03EEF05F034EF05F0040E28ECF6
:100A800006F005EC06F00009D8A449EF05F04BEF9D
:100A900005F041EF05F0800E8AEC05F01200046EBF
:100AA00005EC06F00009D8A458EF05F05AEF05F060
:100AB00050EF05F0F00E9516F00E83160450016EFF
:100AC000026A400E0112000E0212040E036E02347E
:100AD00002320132032E67EF05F001500F0B831233
:100AE0008C9C8C9A00D000D000F08C8800D000D074
:100AF00000F08C98F00E831604500F0B831200D078
:100B000000D000F08C8800D000D000F08C980F0E40
:100B100095121200046EF00E9516F00E8316045016
:100B2000016E026A800E0112000E0212040E036EA4
:100B3000023402320132032E98EF05F001500F0B00
:100B400083128C9C8C9A8EEC06F08C888EEC06F0CE
:100B50008C98F00E831604500F0B83128EEC06F067
:100B60008C888EEC06F08C980F0E95121200016E98
:100B700005EC06F00009D8A4C0EF05F0C2EF05F0BF
:100B8000B8EF05F0F00E9516F00E831601380F0B36
:100B90000F0B83128C8A8C9C8EEC06F08C888EEC6A
:100BA00006F08C98F00E831601500F0B83128EEC1A
:100BB00006F08C888EEC06F08C980F0E95121200C1
:100BC000F6EF05F005EC06F00009D8A4EAEF05F011
:100BD000ECEF05F0E2EF05F002C0F6FF03C0F7FF0F
:100BE0000800F550B7EC05F0024A032A02C0F6FFF0
:100BF00003C0F7FF0800F5500009D8A402EF06F083
:100C000004EF06F0E2EF05F012008C8C8C9A8EEC6B
:100C100006F08C888EEC06F083A611EF06F013EF39
:100C200006F01EEF06F08C988EEC06F08C888EECA9
:100C300006F08C988C9C010E27EF06F08C988EECB9
:100C400006F08C888EEC06F08C988C9C000E1200BE
:100C5000016EF00E9516F00E831601380F0B0F0B78
:100C600083128C9C8C9A8EEC06F08C888EEC06F0AD
:100C70008C98F00E831601500F0B83128EEC06F049
:100C80008C888EEC06F08C980F0E9512120007508F
:100C9000080DF3504FEC05F0000E086E05C0F6FF8E
:100CA00006C0F7FF0800F550B7EC05F0054A062A24
:100CB000082A070E08645FEF06F061EF06F04EEFBA
:100CC00006F0120003BE6DEF06F0035008E10204C7
:100CD000D8A06DEF06F06FEF06F075EF06F0045048
:100CE000C00F28EC06F079EF06F00450800F28ECD6
:100CF00006F01200280EDAEC04F005EC06F000090C
:100D0000D8A485EF06F087EF06F07DEF06F0060E1B
:100D100028EC06F00C0E28EC06F0120000F000F0B3
:100D200000F000F000F000F000F000F000F000F043
:100D300000F000F01200620E016E660EE82EFED783
:100D4000012EFCD71200000EF86E080EF76E00019F
:0E0D500021EF04F00F0EC1129380F19E1200ED
:020000040020DA
:08000000FFFFFFFFFFFFFFFF00
:020000040030CA
:0E000000000C191EFF8381FF0FC00FE00F40A0
:00000001FF
