:020000040000FA
:04000000F8EF3BF0EA
:1077C80001000000010000000F0EC112000E8C6EB7
:1077D800000E8A6E000E896E93809382000E956E5D
:1077E800000E926EF19E1200C80EF66E770EF76EBE
:1077F800000EF86E00EE01F010EE08F00900F5CF6B
:10780800EEFFE550E150FAE1000EF86E00010DEFD1
:107818003CF0E8EC3BF081B014EF3CF016EF3CF0A4
:107828007FEF3CF00D0E0B6EFC0EE82EFED70B2EF4
:10783800FCD7010E0524056E000E0620066E000E0C
:107848000720076E000E0820086E8080020E0C6E5E
:10785800450E0B6EAA0EE82EFED70B2EFCD70C2E6B
:10786800FAD78090020E0C6E450E0B6EAA0EE82E0B
:10787800FED70B2EFCD70C2EFAD7050E05180610CE
:1078880007100810D8A44BEF3CF04DEF3CF07FEF09
:107898003CF0010E056E000E066E000E076E000E1F
:1078A800086E8082060E0C6E130E0B6EAE0EE82E5E
:1078B800FED70B2EFCD70C2EFAD78092030E0C6E37
:1078C8008A0E0B6E560EE82EFED70B2EFCD70C2E0A
:1078D800FAD77FEF3CF02CEC3FF00FEF3CF0B1EC27
:1078E8003CF00FEF3CF058EC3EF00FEF3CF084EC2E
:1078F8003DF00FEF3CF005C00BF006C00CF007C0E0
:107908000DF008C00EF00E50000AD8B4A8EF3CF0F5
:107918000FEF3CF00C50000AD8B495EF3CF00FEF95
:107928003CF00B50010AD8B46FEF3CF0030AD8B40E
:1079380073EF3CF0010AD8B477EF3CF0070AD8B4EB
:107948007BEF3CF00FEF3CF00D50000AD8B48EEFFF
:107958003CF00FEF3CF000EF00F08C6801040210DF
:1079680003100410D8A4BBEF3CF0BDEF3CF0D7EFF8
:107978003CF0030E0A6E8A0E096E560EE82EFED7EC
:10798800092EFCD70A2EFAD7000E8C6E030E0A6E4B
:107998008A0E096E560EE82EFED7092EFCD70A2E3F
:1079A800FAD73DEF3DF0020E011802100310041043
:1079B800D8A4E1EF3CF0E3EF3CF0FDEF3CF0020E21
:1079C8000A6E450E096EAA0EE82EFED7092EFCD7C0
:1079D8000A2EFAD7000E8C6E020E0A6E450E096E3C
:1079E800AA0EE82EFED7092EFCD70A2EFAD73DEFAD
:1079F8003DF0030E0118021003100410D8A407EF7D
:107A08003DF009EF3DF01DEF3DF0A30E096E550E58
:107A1800E82EFED7092EFCD700F0000E8C6EA30EC0
:107A2800096E550EE82EFED7092EFCD700F03DEF63
:107A38003DF0040E0118021003100410D8A427EF1B
:107A48003DF029EF3DF03DEF3DF0410E096EEE0EA1
:107A5800E82EFED7092EFCD700D0000E8C6E410E02
:107A6800096EEE0EE82EFED7092EFCD700D03DEFAA
:107A78003DF081B242EF3DF044EF3DF083EF3DF041
:107A88000D0E096EFC0EE82EFED7092EFCD7010E4E
:107A98000124016E000E0220026E000E0320036E08
:107AA800000E0420046E8084020E0A6E450E096ED4
:107AB800AA0EE82EFED7092EFCD70A2EFAD78094F4
:107AC800020E0A6E450E096EAA0EE82EFED7092E82
:107AD800FCD70A2EFAD7050E01180210031004105D
:107AE800D8A479EF3DF07BEF3DF083EF3DF0010E38
:107AF800016E000E026E000E036E000E046E120080
:107B0800990E8C6E0104021003100410D8A48FEF94
:107B18003DF091EF3DF0ABEF3DF0030E0A6E8A0E9B
:107B2800096E560EE82EFED7092EFCD70A2EFAD774
:107B3800000E8C6E030E0A6E8A0E096E560EE82E23
:107B4800FED7092EFCD70A2EFAD711EF3EF0020E07
:107B58000118021003100410D8A4B5EF3DF0B7EFD8
:107B68003DF0D1EF3DF0020E0A6E450E096EAA0EE9
:107B7800E82EFED7092EFCD70A2EFAD7000E8C6EF7
:107B8800020E0A6E450E096EAA0EE82EFED7092EC1
:107B9800FCD70A2EFAD711EF3EF0030E0118021097
:107BA80003100410D8A4DBEF3DF0DDEF3DF0F1EF5A
:107BB8003DF0A30E096E550EE82EFED7092EFCD710
:107BC80000F0000E8C6EA30E096E550EE82EFED73F
:107BD800092EFCD700F011EF3EF0040E0118021038
:107BE80003100410D8A4FBEF3DF0FDEF3DF011EFBA
:107BF8003EF0410E096EEE0EE82EFED7092EFCD798
:107C080000D0000E8C6E410E096EEE0EE82EFED7E7
:107C1800092EFCD700D011EF3EF081B216EF3EF0EE
:107C280018EF3EF057EF3EF00D0E096EFC0EE82EF1
:107C3800FED7092EFCD7010E0124016E000E02208A
:107C4800026E000E0320036E000E0420046E808472
:107C5800020E0A6E450E096EAA0EE82EFED7092EF0
:107C6800FCD70A2EFAD78094020E0A6E450E096ECA
:107C7800AA0EE82EFED7092EFCD70A2EFAD7050E33
:107C88000118021003100410D8A44DEF3EF04FEF76
:107C98003EF057EF3EF0010E016E000E026E000E30
:107CA800036E000E046E1200660E8C6E0104021044
:107CB80003100410D8A463EF3EF065EF3EF07FEFA9
:107CC8003EF0030E0A6E8A0E096E560EE82EFED797
:107CD800092EFCD70A2EFAD7000E8C6E030E0A6EF8
:107CE8008A0E096E560EE82EFED7092EFCD70A2EEC
:107CF800FAD7E5EF3EF0020E011802100310041047
:107D0800D8A489EF3EF08BEF3EF0A5EF3EF0020ECF
:107D18000A6E450E096EAA0EE82EFED7092EFCD76C
:107D28000A2EFAD7000E8C6E020E0A6E450E096EE8
:107D3800AA0EE82EFED7092EFCD70A2EFAD7E5EFB1
:107D48003EF0030E0118021003100410D8A4AFEF80
:107D58003EF0B1EF3EF0C5EF3EF0A30E096E550EB2
:107D6800E82EFED7092EFCD700F0000E8C6EA30E6D
:107D7800096E550EE82EFED7092EFCD700F0E5EF68
:107D88003EF0040E0118021003100410D8A4CFEF1F
:107D98003EF0D1EF3EF0E5EF3EF0410E096EEE0EFB
:107DA800E82EFED7092EFCD700D0000E8C6E410EAF
:107DB800096EEE0EE82EFED7092EFCD700D0E5EFAF
:107DC8003EF081B2EAEF3EF0ECEF3EF02BEF3FF0F1
:107DD8000D0E096EFC0EE82EFED7092EFCD7010EFB
:107DE8000124016E000E0220026E000E0320036EB5
:107DF800000E0420046E8084020E0A6E450E096E81
:107E0800AA0EE82EFED7092EFCD70A2EFAD78094A0
:107E1800020E0A6E450E096EAA0EE82EFED7092E2E
:107E2800FCD70A2EFAD7050E011802100310041009
:107E3800D8A421EF3FF023EF3FF02BEF3FF0010EE6
:107E4800016E000E026E000E036E000E046E12002C
:107E5800AA0E8C6E0104021003100410D8A437EF88
:107E68003FF039EF3FF053EF3FF0030E0A6E8A0EF2
:107E7800096E560EE82EFED7092EFCD70A2EFAD721
:107E8800000E8C6E030E0A6E8A0E096E560EE82ED0
:107E9800FED7092EFCD70A2EFAD7B9EF3FF0020E0B
:107EA8000118021003100410D8A45DEF3FF05FEF33
:107EB8003FF079EF3FF0020E0A6E450E096EAA0EEA
:107EC800E82EFED7092EFCD70A2EFAD7000E8C6EA4
:107ED800020E0A6E450E096EAA0EE82EFED7092E6E
:107EE800FCD70A2EFAD7B9EF3FF0030E011802109B
:107EF80003100410D8A483EF3FF085EF3FF099EF0B
:107F08003FF0A30E096E550EE82EFED7092EFCD7BA
:107F180000F0000E8C6EA30E096E550EE82EFED7EB
:107F2800092EFCD700F0B9EF3FF0040E011802103B
:107F380003100410D8A4A3EF3FF0A5EF3FF0B9EF6A
:107F48003FF0410E096EEE0EE82EFED7092EFCD743
:107F580000D0000E8C6E410E096EEE0EE82EFED794
:107F6800092EFCD700D0B9EF3FF081B2BEEF3FF049
:107F7800C0EF3FF0FFEF3FF00D0E096EFC0EE82E4C
:107F8800FED7092EFCD7010E0124016E000E022037
:107F9800026E000E0320036E000E0420046E80841F
:107FA800020E0A6E450E096EAA0EE82EFED7092E9D
:107FB800FCD70A2EFAD78094020E0A6E450E096E77
:107FC800AA0EE82EFED7092EFCD70A2EFAD7050EE0
:107FD8000118021003100410D8A4F5EF3FF0F7EFD2
:107FE8003FF0FFEF3FF0010E016E000E026E000E33
:087FF800036E000E046E12007E
:020000040020DA
:08000000FFFFFFFFFFFFFFFF00
:020000040030CA
:0E000000000C181EFF8381FF0FC00FE00F40A1
:00000001FF
