:020000040000FA
:04000000BEEF05F05A
:100800000050726573696F6E612053746172742158
:10081000002A2A504F4B454D4F4E20474F212A2A40
:100820000000056EF00E8316F00E9516959C959AB5
:1008300095988C9C8C9A8C98B6EC05F0300E5EECFA
:1008400005F000D000D000F0300E5EEC05F000D0D6
:1008500000D000F0320E5EEC05F03BEC05F0000934
:10086000D8A435EF04F037EF04F02DEF04F03BECA3
:1008700005F00009D8A43FEF04F041EF04F037EF92
:1008800004F005505EEC05F03BEC05F00009D8A43F
:100890004CEF04F04EEF04F044EF04F0080E5EEC71
:1008A00005F03BEC05F00009D8A459EF04F05BEF2C
:1008B00004F051EF04F00F0E5EEC05F03BEC05F098
:1008C0000009D8A466EF04F068EF04F05EEF04F0CE
:1008D000010E5EEC05F03BEC05F00009D8A473EFC7
:1008E00004F075EF04F06BEF04F0040E5EEC05F01D
:1008F0003BEC05F00009D8A480EF04F082EF04F08F
:1009000078EF04F0800EC0EC04F0120095EC05F0D6
:10091000000E036E000E026E000E056E000E046ED9
:100920007DEC05F0110E026E080E036E16EC05F05C
:10093000060E076E130E066EAE0EE82EFED7062EBE
:10094000FCD7072EFAD7000E036E010E026E000EC2
:10095000056E000E046E7DEC05F0010E026E080EB1
:10096000036E16EC05F0060E076E130E066EAE0E45
:10097000E82EFED7062EFCD7072EFAD700EF00F0A0
:10098000046EF00E9516F00E83160450016E026A86
:10099000800E0112000E0212040E036E02340232A7
:1009A0000132032ECEEF04F001500F0B83128C9C0A
:1009B0008C9AA9EC05F08C88A9EC05F08C98F00EC7
:1009C000831604500F0B8312A9EC05F08C88A9EC58
:1009D00005F08C980F0E95121200016E3BEC05F09D
:1009E0000009D8A4F6EF04F0F8EF04F0EEEF04F0FD
:1009F000F00E9516F00E831601380F0B0F0B8312B5
:100A00008C8A8C9CA9EC05F08C88A9EC05F08C985C
:100A1000F00E831601500F0B8312A9EC05F08C88A1
:100A2000A9EC05F08C980F0E951212002CEF05F032
:100A30003BEC05F00009D8A420EF05F022EF05F00B
:100A400018EF05F002C0F6FF03C0F7FF0800F550ED
:100A5000EDEC04F0024A032A02C0F6FF03C0F7FFE0
:100A60000800F5500009D8A438EF05F03AEF05F07A
:100A700018EF05F012008C8C8C9AA9EC05F08C888C
:100A8000A9EC05F083A647EF05F049EF05F054EF18
:100A900005F08C98A9EC05F08C88A9EC05F08C98F1
:100AA0008C9C010E5DEF05F08C98A9EC05F08C880C
:100AB000A9EC05F08C988C9C000E1200016EF00ED3
:100AC0009516F00E831601380F0B0F0B83128C9CBA
:100AD0008C9AA9EC05F08C88A9EC05F08C98F00EA6
:100AE000831601500F0B8312A9EC05F08C88A9EC3A
:100AF00005F08C980F0E9512120003BE88EF05F0DA
:100B0000035008E10204D8A088EF05F08AEF05F051
:100B100090EF05F00450C00F5EEC05F094EF05F087
:100B20000450800F5EEC05F01200280E11EC04F06A
:100B30003BEC05F00009D8A4A0EF05F0A2EF05F00A
:100B400098EF05F0060E5EEC05F00C0E5EEC05F07D
:100B5000120000F000F000F000F000F000F000F0F3
:100B600000F000F000F000F000F01200620E016EE4
:100B7000660EE82EFED7012EFCD71200000EF86E8E
:0A0B8000080EF76E000186EF04F086
:020000040020DA
:08000000FFFFFFFFFFFFFFFF00
:020000040030CA
:0E000000000C191EFF8381FF0FC00FE00F40A0
:00000001FF
