:020000040000FA
:04000000A1EF3CF040
:10793D0001000000013D0EF66E790EF76E000EF897
:10794D006E00EE0CF010EE05F00900F5CFEEFFE540
:10795D0050E150FAE1000EF86E0001B6EF3CF00078
:10796D000E956E000E8C6E938E938CF19E81BEC221
:10797D00EF3CF0C4EF3CF0E9EF3CF0820E0A6EDE16
:10798D000EE82EFED70A2EFCD7102A050E1018D899
:10799D00A4D3EF3CF0D5EF3CF0E9EF3CF0010E1035
:1079AD006EE9EF3CF008EC3DF0BDEF3CF06AEC3ECB
:1079BD00F0BDEF3CF0B9EC3DF0BDEF3CF02FEC3FEE
:1079CD00F0BDEF3CF010500A6E0B6A0B50000AD858
:1079DD00B4F3EF3CF0BDEF3CF00A50010AD8B4D936
:1079ED00EF3CF0030AD8B4DDEF3CF0010AD8B4E166
:1079FD00EF3CF0070AD8B4E5EF3CF0BDEF3CF000EA
:107A0D00EF00F0000E046E000E036E04BE18EF3D85
:107A1D00F0045009E1080E035CD8A018EF3DF01AF0
:107A2D00EF3DF01CEF3DF0B8EF3DF003C001F0016C
:107A3D000E026E012A25EF3DF0D8900236012E235D
:107A4D00EF3DF002508C6E0C040D100E100F10D87F
:107A5D00A433EF3DF035EF3DF03EEF3DF0820E01EA
:107A6D006EDE0EE82EFED7012EFCD78CEF3DF00218
:107A7D000E0C180D100E100F10D8A448EF3DF04A43
:107A8D00EF3DF058EF3DF0020E026E040E016EBA9E
:107A9D000EE82EFED7012EFCD7022EFAD700D08C81
:107AAD00EF3DF0030E0C180D100E100F10D8A46240
:107ABD00EF3DF064EF3DF072EF3DF0030E026E0806
:107ACD000E016E770EE82EFED7012EFCD7022EFA90
:107ADD00D700F08CEF3DF0040E0C180D100E100FAA
:107AED0010D8A47CEF3DF07EEF3DF08CEF3DF0051E
:107AFD000E026E0F0E016EF10EE82EFED7012EFC5A
:107B0D00D7022EFAD700F08CEF3DF081BC91EF3DFE
:107B1D00F093EF3DF0B4EF3DF0820E016EDE0EE816
:107B2D002EFED7012EFCD7010E0C26000E0D220EB7
:107B3D00220F22050E0C180D100E100F10D8A4AA2E
:107B4D00EF3DF0ACEF3DF0B4EF3DF0010E0C6E00EB
:107B5D000E0D6E000E0E6E000E0F6E034A042A0CF3
:107B6D00EF3DF01200000E046E000E036E04BEC950
:107B7D00EF3DF0045009E1090E035CD8A0C9EF3DBB
:107B8D00F0CBEF3DF0CDEF3DF069EF3EF003C001DE
:107B9D00F0010E026E012AD6EF3DF0D890023601AB
:107BAD002ED4EF3DF002048C6E0C040D100E100F50
:107BBD0010D8A4E4EF3DF0E6EF3DF0EFEF3DF0829D
:107BCD000E016EDE0EE82EFED7012EFCD73DEF3EE8
:107BDD00F0020E0C180D100E100F10D8A4F9EF3D79
:107BED00F0FBEF3DF009EF3EF0020E026E040E01C8
:107BFD006EBA0EE82EFED7012EFCD7022EFAD70054
:107C0D00D03DEF3EF0030E0C180D100E100F10D8D6
:107C1D00A413EF3EF015EF3EF023EF3EF0030E02FE
:107C2D006E080E016E770EE82EFED7012EFCD702E0
:107C3D002EFAD700F03DEF3EF0040E0C180D100E8D
:107C4D00100F10D8A42DEF3EF02FEF3EF03DEF3E7C
:107C5D00F0050E026E0F0E016EF10EE82EFED7012D
:107C6D002EFCD7022EFAD700F03DEF3EF081BC423C
:107C7D00EF3EF044EF3EF065EF3EF0820E016EDE1A
:107C8D000EE82EFED7012EFCD7010E0C26000E0D90
:107C9D00220E220F22050E0C180D100E100F10D8EB
:107CAD00A45BEF3EF05DEF3EF065EF3EF0010E0C94
:107CBD006E000E0D6E000E0E6E000E0F6E034A045A
:107CCD002ABDEF3DF01200000E086E000E076E008B
:107CDD000E066E070E056E08BE7EEF3EF0085009CB
:107CED00E1080E075CD8A07EEF3EF080EF3EF082FB
:107CFD00EF3EF02EEF3FF005C001F0010E026E01D8
:107D0D002A8BEF3EF0D8900236012E89EF3EF00718
:107D1D00C003F0010E046E032A97EF3EF0D89004D5
:107D2D0036032E95EF3EF0045002248C6E0C040D9C
:107D3D00100E100F10D8A4A6EF3EF0A8EF3EF0B134
:107D4D00EF3EF0820E016EDE0EE82EFED7012EFC08
:107D5D00D7FFEF3EF0020E0C180D100E100F10D8BD
:107D6D00A4BBEF3EF0BDEF3EF0CBEF3EF0020E02B6
:107D7D006E040E016EBA0EE82EFED7012EFCD70250
:107D8D002EFAD700D0FFEF3EF0030E0C180D100E9B
:107D9D00100F10D8A4D5EF3EF0D7EF3EF0E5EF3E33
:107DAD00F0030E026E080E016E770EE82EFED7015F
:107DBD002EFCD7022EFAD700F0FFEF3EF0040E0C8A
:107DCD00180D100E100F10D8A4EFEF3EF0F1EF3E8E
:107DDD00F0FFEF3EF0050E026E0F0E016EF10EE894
:107DED002EFED7012EFCD7022EFAD700F0FFEF3E64
:107DFD00F081BC04EF3FF006EF3FF027EF3FF0823C
:107E0D000E016EDE0EE82EFED7012EFCD7010E0CF4
:107E1D0026000E0D220E220F22050E0C180D100E2F
:107E2D00100F10D8A41DEF3FF01FEF3FF027EF3FCD
:107E3D00F0010E0C6E000E0D6E000E0E6E000E0F8C
:107E4D006E074A082A0506D8A0060672EF3EF01204
:107E5D0000000E076E000E066E000E096E000E0875
:107E6D006E000E056E000E046E065008248C6E0416
:107E7D00C001F0010E026E000E036E012A4AEF3FA3
:107E8D00F0D89002360336012E47EF3FF002500630
:107E9D00260350072204500708016E010E026E00E2
:107EAD000E036E012A5EEF3FF0D8900236033601C5
:107EBD002E5BEF3FF002500826035009220C040DF3
:107ECD00100E100F10D8A46EEF3FF070EF3FF07949
:107EDD00EF3FF0820E016EDE0EE82EFED7012EFC76
:107EED00D7C7EF3FF0020E0C180D100E100F10D863
:107EFD00A483EF3FF085EF3FF093EF3FF0020E02CA
:107F0D006E040E016EBA0EE82EFED7012EFCD702BE
:107F1D002EFAD700D0C7EF3FF0030E0C180D100E40
:107F2D00100F10D8A49DEF3FF09FEF3FF0ADEF3F46
:107F3D00F0030E026E080E016E770EE82EFED701CD
:107F4D002EFCD7022EFAD700F0C7EF3FF0040E0C2F
:107F5D00180D100E100F10D8A4B7EF3FF0B9EF3F6A
:107F6D00F0C7EF3FF0050E026E0F0E016EF10EE839
:107F7D002EFED7012EFCD7022EFAD700F0C7EF3F09
:107F8D00F081BCCCEF3FF0CEEF3FF0EFEF3FF08252
:107F9D000E016EDE0EE82EFED7012EFCD7010E0C63
:107FAD0026000E0D220E220F22050E0C180D100E9E
:107FBD00100F10D8A4E5EF3FF0E7EF3FF0EFEF3FE4
:107FCD00F0010E0C6E000E0D6E000E0E6E000E0FFB
:107FDD006E044A052A05BEFDEF3FF0055009E10587
:107FED000E045CD8A0FDEF3FF0FFEF3FF03BEF3FFD
:037FFD00F012007F
:020000040020DA
:08000000FFFFFFFFFFFFFFFF00
:020000040030CA
:0E000000000C181EFF0181FF0FC00FE00F4023
:00000001FF
