:020000040000FA
:0400000091EF3FF04D
:107F22000001A2EF3FF094929494260ECB6E1F0EA6
:107F3200BE6E030ECA6E0C0EBD6E000ECC6ECA84EF
:107F4200120094EC3FF0000E056E010E046EB5EFC8
:107F52003FF004C0BEFF820E016EDE0EE82EFED799
:107F6200012EFCD7044A052ACB50016E026A015049
:107F7200045C0550800A036E0250800A0358D8A0A0
:107F8200C5EF3FF0C7EF3FF0AAEF3FF0030E026EDE
:107F92008A0E016E560EE82EFED7012EFCD7022E57
:107FA200FAD7CBCF04F0056AE3EF3FF004C0BEFF7F
:107FB200820E016EDE0EE82EFED7012EFCD70406DD
:107FC200D8A0050605BEF1EF3FF0055007E1020E0D
:107FD200045CD8B0EFEF3FF0F1EF3FF0D7EF3FF0A6
:107FE200030E026E8A0E016E560EE82EFED7012E89
:0E7FF200FCD7022EFAD7A4EF3FF000EF00F00C
:020000040020DA
:08000000FFFFFFFFFFFFFFFF00
:020000040030CA
:0E000000000C181EFF8381FF0FC00FE00F40A1
:00000001FF
