:020000040000FA
:04000000EBEF1EF014
:10080000002A2A2043616E616C65732041444320B5
:100810002A2A0054656E73696F6E204144435F312C
:100820003A200054656E73696F6E204144435F3215
:100830003A200054656E73696F6E204144435F3304
:100840003A20002042793A204665726E616E646FEC
:1008500020004144435F31202D3E2050756C7331A0
:10086000004144435F32202D3E2050756C733200AE
:100870004144435F33202D3E2050756C7333002577
:100880002E326600494E46004E414E00696E6600AB
:100890006E616E006C660000000E0001806F000E3D
:1008A0007F6F57C091F058C092F059C093F05AC072
:1008B00094F094BF60EF04F05EEF04F076EF04F084
:1008C000000E806F010E7F6F91C001F092C002F0A8
:1008D00093C003F094C004F047EC1EF001C091F007
:1008E00002C092F003C093F004C094F0000E000127
:1008F000986F000E976FD9C084F0DAC085F07F51F1
:100900008011D8A486EF04F088EF04F08FEF04F094
:10091000DDA58DEF04F08FEF04F0A9EF04F07F5117
:100920008011D8A496EF04F098EF04F09EEF04F045
:10093000000E6A6F2B0E696FA2EF04F0000E6A6F53
:100940002D0E696F69C000F1974B982B8407D8A0D2
:10095000850791C001F092C002F093C003F094C0EB
:1009600004F0DAEC18F001040210D8A4BAEF04F095
:10097000BCEF04F013EF05F0BF0E0001606FFF0E37
:10098000616F5B50626F636B6051622761516323DB
:1009900063510AE11A0E625DD8A0D1EF04F0D4EFE2
:1009A00004F0010ED5EF04F0000E6B6F6C6B6B5111
:1009B0006C11D8B4DEEF04F0E0EF04F0EEEF04F0D9
:1009C000000E9725016E010E9821026E840E036EB3
:1009D000080E046EAAEC1CF0FAEF04F0000E972546
:1009E000016E010E9821026E8C0E036E080E046ECD
:1009F000AAEC1CF00001FD0E8427FF0E852355C0D4
:100A000011F056C012F0000E136E010E146E84C069
:100A100015F085C016F09EEC1AF011C055F012C00A
:100A200056F023EF0AF091C001F092C002F093C09B
:100A300003F094C004F0DAEC18F001500210D8A4CE
:100A400024EF05F026EF05F066EF05F0BF0E00017C
:100A5000606FFF0E616F5B50626F636B6051622766
:100A60006151632363510AE11A0E625DD8A03BEF26
:100A700005F03EEF05F0010E3FEF05F0000E6D6F43
:100A80006E6B6D516E11D8B448EF05F04AEF05F06A
:100A900058EF05F0000E9725016E010E9821026EA9
:100AA000880E036E080E046EAAEC1CF0FAEF04F038
:100AB000000E9725016E010E9821026E900E036EB6
:100AC000080E046EAAEC1CF0FAEF04F0000E000110
:100AD000996F000E9A6F800E9B6F3F0E9C6F000EF9
:100AE000966F000E956F91C001F092C002F093C016
:100AF00003F094C004F0000E056E000E066E000EAA
:100B0000076E000E086EBBEC1BF0D8B08AEF05F044
:100B10008CEF05F00FEF06F0ABEF05F099C00FF08A
:100B20009AC010F09BC011F09CC012F0000E136E22
:100B3000000E146E200E156E410E166E48EC11F06C
:100B40000FC099F010C09AF011C09BF012C09CF039
:100B50000001954B962B91C028F092C029F093C0CC
:100B60002AF094C02BF0000E136E000E146E200EAF
:100B7000156E410E166E99C00FF09AC010F09BC012
:100B800011F09CC012F048EC11F00FC02CF010C016
:100B90002DF011C02EF012C02FF058EC18F0D8B084
:100BA000D4EF05F0D6EF05F08EEF05F0F6EF05F087
:100BB00099C028F09AC029F09BC02AF09CC02BF065
:100BC000000E2C6E000E2D6E200E2E6E410E2F6E1E
:100BD0005DEC13F028C099F029C09AF02AC09BF070
:100BE0002BC09CF000019507D8A0960791C028F073
:100BF00092C029F093C02AF094C02BF099C02CF039
:100C00009AC02DF09BC02EF09CC02FF058EC18F02D
:100C1000D8A00DEF06F00FEF06F0D8EF05F05BC09F
:100C200007F0086A7AEC1CF007500001866F86C056
:100C300083F0670E8619D8A420EF06F022EF06F0A5
:100C400048EF06F0DB51DC11D8A429EF06F02BEFBA
:100C500006F02FEF06F0000EDC6F010EDB6FDCBF3D
:100C60003CEF06F0DC5106E1DB05D8B03AEF06F0C8
:100C70003CEF06F042EF06F0000E826F060E816F29
:100C800051EF06F0DBC081F0DCC082F051EF06F0DE
:100C9000DCBF4DEF06F04FEF06F03CEF06F042EF01
:100CA00006F0670E8619D8A458EF06F05AEF06F042
:100CB00089EF06F096AF68EF06F0FC0E955DFF0E2B
:100CC0009659D8A066EF06F068EF06F087EF06F0B9
:100CD000FF0E606FFF0E616F81C062F082C063F033
:100CE00060516227615163239551625D6351800AAF
:100CF000646F9651800A6459D8A081EF06F083EFA3
:100D000006F087EF06F0660E836F89EF06F0650E3A
:100D1000836F81C079F082C07AF0670E8619D8A4FB
:100D200094EF06F096EF06F0A6EF06F0660E831934
:100D3000D8A49DEF06F09FEF06F0A8EF06F096BF4F
:100D4000A6EF06F0A4EF06F0A8EF06F0794B7A2B99
:100D5000660E8319D8A4AFEF06F0B1EF06F0D1EF1D
:100D600006F096BFB8EF06F0B6EF06F0C4EF06F057
:100D7000000E996F000E9A6F800E9B6F3F0E9C6F56
:100D8000000E966F000E956F670E8619D8B4CBEFE4
:100D900006F0CDEF06F0D1EF06F095517927965188
:100DA0007A23000E906F000E8F6F91C087F092C073
:100DB00088F093C089F094C08AF099C065F09AC019
:100DC00066F09BC067F09CC068F062EF07F087C0D8
:100DD00028F088C029F089C02AF08AC02BF099C079
:100DE0002CF09AC02DF09BC02EF09CC02FF05DEC33
:100DF00013F028C041F029C042F02AC043F02BC0B4
:100E000044F02AEC15F041C08BF042C08CF043C096
:100E10008DF044C08EF08BC001F08CC002F08DC00C
:100E200003F08EC004F0D5EC17F001C07DF002C0D5
:100E30007EF087C028F088C029F089C02AF08AC0D7
:100E40002BF099C013F09AC014F09BC015F09CC011
:100E500016F08BC00FF08CC010F08DC011F08EC05A
:100E600012F048EC11F00FC02CF010C02DF011C0A2
:100E70002EF012C02FF0A4EC1DF028C087F029C07E
:100E800088F02AC089F02BC08AF099C028F09AC057
:100E900029F09BC02AF09CC02BF0000E2C6E000E97
:100EA0002D6E200E2E6E410E2F6E5DEC13F028C0BD
:100EB00099F029C09AF02AC09BF02BC09CF0000149
:100EC0008F4B902B79518F5D9051800A606F7A51D2
:100ED000800A6059D8A06FEF07F071EF07F0E7EFD5
:100EE00006F099C00FF09AC010F09BC011F09CC0A2
:100EF00012F0000E136E000E146EA00E156E400E52
:100F0000166E48EC11F00FC08BF010C08CF011C0C1
:100F10008DF012C08EF087C028F088C029F089C0FB
:100F20002AF08AC02BF08BC02CF08CC02DF08DC025
:100F30002EF08EC02FF058EC18F0D8B0A2EF07F0CA
:100F4000A4EF07F0AFEF07F0000E00018B6F000E6B
:100F50008C6F000E8D6F000E8E6FD8EF07F087C07C
:100F600001F088C002F089C003F08AC004F08BC091
:100F700005F08CC006F08DC007F08EC008F0BBEC09
:100F80001BF0D8A0C6EF07F0C8EF07F0D8EF07F0C6
:100F900000017DB1CEEF07F0D0EF07F0D8EF07F0FA
:100FA000000E8B6F000E8C6F000E8D6F000E8E6F1B
:100FB00091C001F092C002F093C003F094C004F01D
:100FC0008BC005F08CC006F08DC007F08EC008F015
:100FD000B1EC0CF001C087F002C088F003C089F0CA
:100FE00004C08AF065C099F066C09AF067C09BF0B3
:100FF00068C09CF0650E00018319D8B402EF08F0B8
:1010000004EF08F00AEF08F095C07BF096C07CF082
:101010000EEF08F0000E7C6F000E7B6F000E786FF5
:10102000000E776F000E766F000E756F000E906FDA
:10103000000E8F6F09EF09F087C028F088C029F0F3
:1010400089C02AF08AC02BF099C02CF09AC02DF0EC
:101050009BC02EF09CC02FF05DEC13F028C041F037
:1010600029C042F02AC043F02BC044F02AEC15F00E
:1010700041C08BF042C08CF043C08DF044C08EF074
:101080008BC001F08CC002F08DC003F08EC004F064
:10109000D5EC17F001C07DF002C07EF00001DDB993
:1010A00054EF08F056EF08F073EF08F07D517E1111
:1010B000D8A45DEF08F05FEF08F073EF08F0670E5B
:1010C0008619D8A466EF08F068EF08F073EF08F00F
:1010D0007CBF6FEF08F06DEF08F073EF08F0754B11
:1010E000762BBDEF08F077517811D8A47AEF08F08D
:1010F0007CEF08F0A6EF08F07CBF83EF08F081EFEB
:1011000008F0A6EF08F0000E9725D96E010E982181
:10111000DA6E2E0EDF6E974B982B8407D8A08507CA
:10112000000E786F010E776FA6EF08F0000E97257E
:10113000D96E010E9821DA6E300EDF6E974B982B28
:101140008407D8A085077507D8A076077551761152
:10115000D8A4ADEF08F0AFEF08F096EF08F0000E5E
:101160009725D96E010E9821DA6E7D51300FDF6E12
:10117000974B982B8407D8A0850787C028F088C094
:1011800029F089C02AF08AC02BF099C013F09AC0C8
:1011900014F09BC015F09CC016F08BC00FF08CC0F3
:1011A00010F08DC011F08EC012F048EC11F00FC09D
:1011B0002CF010C02DF011C02EF012C02FF0A4ECB6
:1011C0001DF028C087F029C088F02AC089F02BC004
:1011D0008AF099C028F09AC029F09BC02AF09CC0E0
:1011E0002BF0000E2C6E000E2D6E200E2E6E410E7A
:1011F0002F6E5DEC13F028C099F029C09AF02AC038
:101200009BF02BC09CF000017B07D8A07C078F4B84
:10121000902B79518F5D9051800A606F7A51800ACE
:101220006059D8B016EF09F018EF09F026EF09F071
:1012300098BF24EF09F0985109E14B0E975DD8A0B3
:1012400024EF09F026EF09F01CEF08F07751781130
:10125000D8A42DEF09F02FEF09F040EF09F0DDA938
:1012600034EF09F036EF09F040EF09F0000E972552
:10127000D96E010E9821DA6E2E0EDF6E974B982BE9
:10128000000E9725D96E010E9821DA6E000EDF6EE2
:10129000650E8319D8A44FEF09F051EF09F0FFEF65
:1012A00004F0000E906F4F0E8F6F000E8F25D96ED9
:1012B000010E9021DA6E000EDF6E000E806F000EC0
:1012C0007F6F96BF68EF09F066EF09F070EF09F0E5
:1012D000000E806F010E7F6F956D961FD8B0962B14
:1012E000000E826F020E816FA1EF09F08F07D8A068
:1012F0009007000E8F25D96E010E9021DA6E95C0F1
:1013000001F096C002F0000E046E0A0E036E63EC4C
:101310001BF00150300FDF6E95C001F096C002F057
:10132000000E046E0A0E036E01EC1BF001C095F076
:1013300002C096F000018107D8A082078407D8A0D8
:10134000850795519611D8A4A8EF09F0AAEF09F0E6
:1013500076EF09F082BFB7EF09F0825106E181050F
:10136000D8B0B5EF09F0B7EF09F076EF09F08F07C5
:10137000D8A090077F518011D8A4C1EF09F0C3EF26
:1013800009F0C9EF09F0000E706F2B0E6F6FCDEFF3
:1013900009F0000E706F2D0E6F6F000E8F25D96E45
:1013A000010E9021DA6E6FC0DFFF8407D8A0850799
:1013B0008F07D8A09007BF0E606FFF0E616F5B5064
:1013C000626F636B605162276151632363510AE16D
:1013D0001A0E625DD8A0EFEF09F0F2EF09F0010EEE
:1013E000F3EF09F0000E736F746B73517411D8A48E
:1013F000FCEF09F0FEEF09F004EF0AF0000E726F47
:10140000650E716F08EF0AF0000E726F450E716F76
:10141000000E8F25D96E010E9021DA6E71C0DFFFAC
:101420008407D8A08507000E9725016E010E98212C
:10143000026E000E8F25036E010E9021046EAAEC41
:101440001CF0FFEF04F01200B2EC1EF0D9EC1EF01D
:1014500011EC1FF0000E036E000E026E000E056E02
:10146000000E046E9AEC1EF0010E026E080E036E62
:1014700010EC1CF0030E0001CA6F8A0EC96F550EE6
:10148000E82EFED7C92FFCD7CA2FFAD700D0000EFE
:10149000036E010E026E000E056E000E046E9AECD5
:1014A0001EF0430E026E080E036E10EC1CF0270EA9
:1014B0000001CA6F0D0EC96F260EE82EFED7C92F88
:1014C000FCD7CA2FFAD700F0010E0CEC1EF0000E6C
:1014D000036E000E026E000E056E000E046E9AEC96
:1014E0001EF0520E026E080E036E10EC1CF0030E7E
:1014F0000001CA6F8A0EC96F550EE82EFED7C92F9C
:10150000FCD7CA2FFAD700D0000E036E010E026E70
:10151000000E056E000E046E9AEC1EF0610E026E57
:10152000080E036E10EC1CF0030E0001CA6F8A0E49
:10153000C96F550EE82EFED7C92FFCD7CA2FFAD790
:1015400000D0010E0CEC1EF0000E036E000E026EB9
:10155000000E056E000E046E9AEC1EF0700E026E08
:10156000080E036E10EC1CF0030E0001CA6F8A0E09
:10157000C96F550EE82EFED7C92FFCD7CA2FFAD750
:1015800000D0010E0CEC1EF081B0C9EF0AF0CBEFD9
:101590000AF067EF0BF0000E036E000E026E000EF5
:1015A000056E000E046E9AEC1EF0130E026E080E0D
:1015B000036E10EC1CF0030E0001CA6F8A0EC96F97
:1015C000550EE82EFED7C92FFCD7CA2FFAD700D068
:1015D000000E80EC1DF001C0DFF002C0E0F0000E54
:1015E000136E000E146EA00E156E400E166EDFC048
:1015F00001F0E0C002F0036A046A000E33EC16F05A
:1016000001C00FF002C010F003C011F004C012F0CE
:1016100048EC11F00FC028F010C029F011C02AF0DA
:1016200012C02BF0000E2C6EC00E2D6E7F0E2E6E93
:10163000440E2F6E5DEC13F028C0D3F029C0D4F017
:101640002AC0D5F02BC0D6F0000E036E010E026E3C
:10165000000E056E0C0E046E9AEC1EF0E10E0001F9
:10166000B76F000EB86F7F0EB96F080EBA6FD3C098
:10167000BBF0D4C0BCF0D5C0BDF0D6C0BEF005EC08
:101680001DF0E10E026E000E036E10EC1CF0030E56
:101690000001CA6F8A0EC96F550EE82EFED7C92FFA
:1016A000FCD7CA2FFAD700D081A259EF0BF05BEF1D
:1016B0000BF062EF0BF081B460EF0BF062EF0BF018
:1016C000CBEF0AF0010E0CEC1EF067EF0AF081B2CE
:1016D0006CEF0BF06EEF0BF00AEF0CF0000E036EE8
:1016E000000E026E000E056E000E046E9AEC1EF0E7
:1016F000230E026E080E036E10EC1CF0030E0001A8
:10170000CA6F8A0EC96F550EE82EFED7C92FFCD7B7
:10171000CA2FFAD700D0010E80EC1DF001C0DFF017
:1017200002C0E0F0000E136E000E146EA00E156ED7
:10173000400E166EDFC001F0E0C002F0036A046ADA
:10174000000E33EC16F001C00FF002C010F003C021
:1017500011F004C012F048EC11F00FC028F010C0D6
:1017600029F011C02AF012C02BF0000E2C6EC00E12
:101770002D6E7F0E2E6E440E2F6E5DEC13F028C082
:10178000D3F029C0D4F02AC0D5F02BC0D6F0000E7B
:10179000036E010E026E000E056E0C0E046E9AECC6
:1017A0001EF0E10E0001B76F000EB86F7F0EB96F2B
:1017B000080EBA6FD3C0BBF0D4C0BCF0D5C0BDF02A
:1017C000D6C0BEF005EC1DF0E10E026E000E036EF9
:1017D00010EC1CF0030E0001CA6F8A0EC96F550E83
:1017E000E82EFED7C92FFCD7CA2FFAD700D081A088
:1017F000FCEF0BF0FEEF0BF005EF0CF081B403EF04
:101800000CF005EF0CF06EEF0BF0010E0CEC1EF07F
:1018100067EF0AF081B40FEF0CF011EF0CF0ADEFB1
:101820000CF0000E036E000E026E000E056E000E30
:10183000046E9AEC1EF0330E026E080E036E10EC6E
:101840001CF0030E0001CA6F8A0EC96F550EE82EF8
:10185000FED7C92FFCD7CA2FFAD700D0020E80ECD2
:101860001DF001C0DFF002C0E0F0000E136E000EAC
:10187000146EA00E156E400E166EDFC001F0E0C0B3
:1018800002F0036A046A000E33EC16F001C00FF098
:1018900002C010F003C011F004C012F048EC11F0C7
:1018A0000FC028F010C029F011C02AF012C02BF090
:1018B000000E2C6EC00E2D6E7F0E2E6E440E2F6EFF
:1018C0005DEC13F028C0D3F029C0D4F02AC0D5F0C5
:1018D0002BC0D6F0000E036E010E026E000E056ED8
:1018E0000C0E046E9AEC1EF0E10E0001B76F000EB4
:1018F000B86F7F0EB96F080EBA6FD3C0BBF0D4C0FB
:10190000BCF0D5C0BDF0D6C0BEF005EC1DF0E10EB8
:10191000026E000E036E10EC1CF0030E0001CA6F85
:101920008A0EC96F550EE82EFED7C92FFCD7CA2FD5
:10193000FAD700D081A29FEF0CF0A1EF0CF0A8EF36
:101940000CF081B0A6EF0CF0A8EF0CF011EF0CF04A
:10195000010E0CEC1EF067EF0AF067EF0AF000EFE3
:1019600000F00450800B0D6E045004240F6E03AE83
:10197000BCEF0CF0BEEF0CF0BFEF0CF00F800F507F
:10198000D8B4C5EF0CF0C7EF0CF0DCEF0CF00F286B
:10199000D8A4CDEF0CF0CFEF0CF0D7EF0CF0000E89
:1019A000016E000E026E000E036E000E046E038EBA
:1019B000000E046EE4EF0CF0000E016E000E026EDD
:1019C000000E036E000E046E0850800B0E6E0D505C
:1019D0000E18D8B4EEEF0CF0F0EF0CF0F1EF0CF0C5
:1019E0000D8C085008240E6E07AEF9EF0CF0FBEFDB
:1019F0000CF0FCEF0CF00E800E50D8B402EF0DF09E
:101A000004EF0DF019EF0DF00E28D8A40AEF0DF039
:101A10000CEF0DF014EF0DF0000E056E000E066ECB
:101A2000000E076E000E086E078E000E086E21EF86
:101A30000DF0000E056E000E066E000E076E000E15
:101A4000086E0F500E5CD8B028EF0DF02AEF0DF0A5
:101A500051EF0DF00DAC2FEF0DF031EF0DF033EF36
:101A60000DF0800E0D1A0FC010F00EC00FF010C058
:101A70000EF001C010F005C001F010C005F002C06A
:101A800010F006C002F010C006F003C010F007C04E
:101A900003F010C007F004C010F008C004F010C03C
:101AA00008F0000E106E0F500EC009F00A6A095EB1
:101AB000000E0A5A0ABE66EF0DF00A5009E11A0E2E
:101AC000095CD8A066EF0DF068EF0DF09FEF0DF008
:101AD0000150021003100410D8A471EF0DF074EF40
:101AE0000DF0010E75EF0DF0000E106E000E016E80
:101AF000000E026E000E036E000E046E0EC00FF09C
:101B0000A8EF0DF010A087EF0DF089EF0DF08FEF2B
:101B10000DF0D89010300109106E91EF0DF0D890B3
:101B2000103201A096EF0DF098EF0DF099EF0DF047
:101B3000108E043404320332023201320F2A0E5066
:101B40000F5CD8A0A6EF0DF0A8EF0DF082EF0DF01E
:101B50000DBCADEF0DF0AFEF0DF0EFEF0DF00F504E
:101B6000D8A4B5EF0DF0B7EF0DF0C1EF0DF0000EFA
:101B7000016E000E026E000E036E000E046E10EF7A
:101B80000FF005500126065002220750032208508C
:101B9000042204A0CEEF0DF0D0EF0DF07CEF0EF09C
:101BA00010A0D5EF0DF0D7EF0DF0DDEF0DF0D890D0
:101BB00010300109106EDFEF0DF0D890103201A047
:101BC000E4EF0DF0E6EF0DF0E7EF0DF0108E0434CA
:101BD00004320332023201320F2A7CEF0EF005503C
:101BE000015C06500258075003580450800A096EE1
:101BF0000850800A0958D8B000EF0EF002EF0EF03E
:101C00002DEF0EF00150055C096E025006580A6E69
:101C1000035007580B6E045008580C6EFF0E092431
:101C2000016EFF0E0A20026EFF0E0B20036EFF0EE8
:101C30000C20046E800E0D1A106C1050D8A423EFE7
:101C40000EF025EF0EF035EF0EF0010E0126000E1E
:101C500002220322042235EF0EF00550015E0650E9
:101C6000025A0750035A0850045A01500210031038
:101C70000410D8A43EEF0EF040EF0EF075EF0EF01A
:101C80001050D8A446EF0EF048EF0EF075EF0EF0AE
:101C9000000E016E000E026E000E036E000E046E4A
:101CA00010EF0FF0D890013602360336043610AE2E
:101CB0005CEF0EF05EEF0EF05FEF0EF0018010A013
:101CC00064EF0EF066EF0EF06AEF0EF0D88010367B
:101CD0006CEF0EF0D89010360F50D8B472EF0EF0B3
:101CE00074EF0EF075EF0EF00F0603AE7AEF0EF004
:101CF0007CEF0EF052EF0EF0000E0E6E10AE83EF82
:101D00000EF085EF0EF09DEF0EF010C009F07F0E83
:101D10000916D8B48EEF0EF090EF0EF094EF0EF09F
:101D2000010E0E6E9DEF0EF001A099EF0EF09BEFED
:101D30000EF09DEF0EF090EF0EF00E50D8B4A3EF22
:101D40000EF0A5EF0EF0D0EF0EF0010E0126000E02
:101D500002220322042204A0B0EF0EF0B2EF0EF034
:101D6000D0EF0EF001C009F002C00AF003C00BF082
:101D700004C00CF00C340C320B320A32093209C0A8
:101D800001F00AC002F00BC003F00CC004F00F28F1
:101D9000D8B4CDEF0EF0CFEF0EF0D0EF0EF00F2A4B
:101DA0000F28D8B4D6EF0EF0D8EF0EF0E0EF0EF01B
:101DB0000F50D8A4DEEF0EF0E0EF0EF0F2EF0EF0D1
:101DC000000E016E000E026E000E036E000E046E19
:101DD0000F50D8A4EEEF0EF0F0EF0EF0F2EF0EF091
:101DE000000E0D6E0FA0F7EF0EF0F9EF0EF0FCEF06
:101DF0000EF0038EFDEF0EF0039ED8900F30046EB0
:101E00000DAE05EF0FF007EF0FF008EF0FF0048EA7
:101E100001C001F002C002F003C003F004C004F0EE
:101E200012009FC0D9FFA0C0DAFFDECFF6FFDDCFE2
:101E3000F7FF0800F550250AD8A421EF0FF023EF93
:101E40000FF02CEF11F09FC0D9FFA0C0DAFFDE2AFF
:101E5000000EDD22000E0001DA6F000ED96FD9C02E
:101E6000DDF0DAC0DEF0DB69DC699FC0D9FFA0C01D
:101E7000DAFFDECFF6FFDDCFF7FF0800F5502E0AC0
:101E8000D8A445EF0FF047EF0FF0C5EF0FF0000EAD
:101E9000DC6F000EDB6F9FC0D9FFA0C0DAFFDE2A27
:101EA000000EDD229FC0D9FFA0C0DAFFDECFF6FF13
:101EB000DDCFF7FF0800F5502A0AD8A462EF0FF033
:101EC00064EF0FF081EF0FF09FC0D9FFA0C0DAFFE1
:101ED000DE2A000EDD22A1C0D9FFA2C0DAFFDFCFCB
:101EE0005CF0020EDE26DFCF5DF0000EDD225CC06E
:101EF000D9FF5DC0DAFFDECFDBF0DDCFDCF0C5EF70
:101F00000FF09FC0D9FFA0C0DAFFDECF08F0DDCF11
:101F100009F00DEC17F008C0DBF009C0DCF098EF19
:101F20000FF09FC0D9FFA0C0DAFFDE2A000EDD222D
:101F3000D00E5C6EFF0E5D6E9FC0D9FFA0C0DAFFB1
:101F4000DECFF6FFDDCFF7FF0800F5505E6E5F6A6B
:101F50005C505E265D505F225F500AE10A0E5E5CB7
:101F6000D8A0B5EF0FF0B8EF0FF0010EB9EF0FF0FA
:101F7000000E0001A36FA46BA351A411D8A4C3EF5A
:101F80000FF0C5EF0FF091EF0FF09FC0D9FFA0C089
:101F9000DAFFDECFF6FFDDCFF7FF0800F550076E62
:101FA000086A7AEC1CF007500001AB6FAB51D8B453
:101FB000DCEF0FF0DEEF0FF018EF10F09FC0D9FF4D
:101FC000A0C0DAFFDECF5CF0DDCF5DF0010E5C2655
:101FD000000E5D225CC0F6FF5DC0F7FF0800F55003
:101FE000076E086A7AEC1CF007500001AC6FAC5128
:101FF000D8B4FDEF0FF0FFEF0FF018EF10F09FC017
:10200000D9FFA0C0DAFFDECF5CF0DDCF5DF0020EBD
:102010005C26000E5D225CC0F6FF5DC0F7FF080085
:10202000F550076E086A7AEC1CF007500001AD6F9E
:10203000660EAB19D8A41FEF10F021EF10F061EF7E
:1020400010F09FC0D9FFA0C0DAFFDECFF6FFDDCFD2
:10205000F7FF0800F5CFAEF09FC0D9FFA0C0DAFFB0
:10206000DE2A000EDD22A1C0D9FFA2C0DAFFDFCF39
:102070005CF0040EDE26DFCF5DF0000EDD225CC0DA
:10208000D9FF5DC0DAFFDECFA7F0DECFA8F0DECF4C
:10209000A9F0DECFAAF09DC055F09EC056F0A7C0B3
:1020A00057F0A8C058F0A9C059F0AAC05AF0AEC065
:1020B0005BF04CEC04F055C09DF056C09EF047EF2D
:1020C00011F0AB0E016E000E026E940E036E080E40
:1020D000046E000E066E020E056ECEEC19F0015075
:1020E0000210D8A476EF10F078EF10F0F4EF10F0B3
:1020F0009FC0D9FFA0C0DAFFDECF5CF0DDCF5DF07E
:10210000010E5C26000E5D225CC0F6FF5DC0F7FF8D
:102110000800F5CFAEF0BF0E5C6EFF0E5D6E9FC087
:10212000D9FFA0C0DAFFDECFF6FFDDCFF7FF080052
:10213000F5505E6E5F6A5C505E265D505F225F50B8
:102140000AE11A0E5E5CD8A0A8EF10F0ABEF10F019
:10215000010EACEF10F0000E0001A56FA66BA551AB
:10216000A611D8B4B6EF10F0B8EF10F0D2EF10F01F
:10217000A1C0D9FFA2C0DAFFDFCF5CF0040EDE26DB
:10218000DFCF5DF0000EDD225CC0D9FF5DC0DAFF5D
:10219000DECFA7F0DECFA8F0DECFA9F0DECFAAF029
:1021A000EAEF10F0A1C0D9FFA2C0DAFFDFCF5CF0E8
:1021B000040EDE26DFCF5DF0000EDD225CC0D9FF0D
:1021C0005DC0DAFFDECFA7F0DECFA8F0DECFA9F04A
:1021D000DECFAAF0020E9FC0D9FFA0C0DAFFDE2634
:1021E000000EDD224BEF10F09FC0D9FFA0C0DAFF38
:1021F000DECFF6FFDDCFF7FF0800F550250AD8A4A3
:1022000004EF11F006EF11F01EEF11F09FC0D9FF9F
:10221000A0C0DAFFDE2A000EDD22000E026E250EBF
:10222000016E9DC003F09EC004F039EC1AF0000E60
:1022300000019E6F010E9D6F47EF11F09FC0D9FF07
:10224000A0C0DAFFDE2A000EDD22000E00019E6F24
:10225000000E9D6F47EF11F09FC0D9FFA0C0DAFFBD
:10226000DECFF6FFDDCFF7FF0800F550016E026A02
:102270009DC003F09EC004F039EC1AF09FC0D9FF56
:10228000A0C0DAFFDE2A000EDD2217EF11F01200E7
:102290001250800B1B6E12501224216E11AE53EFA0
:1022A00011F055EF11F056EF11F021802150D8B404
:1022B0005CEF11F05EEF11F071EF11F02128D8A45E
:1022C00064EF11F066EF11F06EEF11F0000E0F6E7B
:1022D000000E106E000E116E000E126E118E79EF50
:1022E00011F0000E0F6E000E106E000E116E000E3B
:1022F000126E1650800B1B1A16501624206E15AE47
:1023000084EF11F086EF11F087EF11F0208020505C
:10231000D8B48DEF11F08FEF11F0A2EF11F020285B
:10232000D8A495EF11F097EF11F09FEF11F0000E88
:10233000136E000E146E000E156E000E166E158EC6
:10234000AAEF11F0000E136E000E146E000E156E43
:10235000000E166E2050D8B4B0EF11F0B2EF11F0AD
:10236000BAEF11F02150D8A4B8EF11F0BAEF11F084
:10237000C4EF11F0000E0F6E000E106E000E116E05
:10238000000E126E5CEF13F015500F02F3CF26F023
:10239000F4CF27F026501C6E1D6A1E6A1F6A275054
:1023A000226E236A246A256A14501002F3CF26F0A5
:1023B000F4CF27F026501C26000E1D221E221F22BD
:1023C00027502226000E23222422252213501102F8
:1023D000F3CF26F0F4CF27F026501C26000E1D2246
:1023E0001E221F2227502226000E232224222522CD
:1023F0001EC01FF01DC01EF01CC01DF01C6A135033
:102400001002F3CF26F0F4CF27F026501C262750D9
:102410001D22000E1E22000E1F2214500F02F3CFA9
:1024200026F0F4CF27F026501C2627501D22000E40
:102430001E22000E1F221EC01FF01DC01EF01CC059
:102440001DF01C6A13500F02F3CF26F0F4CF27F0D3
:1024500026501C2627501D22000E1E22000E1F2271
:1024600015501002F3CF26F0F4CF27F02650222685
:1024700027502322000E2422000E25221450110280
:10248000F3CF26F0F4CF27F0265022262750232220
:10249000000E2422000E252215501102F3CF26F043
:1024A000F4CF27F02650176E2750186E196A1A6A53
:1024B00019C01AF018C019F017C018F0176A175091
:1024C000222618502322195024221A5025221CC0DB
:1024D00017F01DC018F01EC019F01FC01AF0190E19
:1024E00077EF12F0D8901A32193218321732E82EDC
:1024F00072EF12F01750222618502322195024226E
:102500001A5025221EC01FF01DC01EF01CC01DF059
:102510001C6A205021C017F0186A1726000E1822D6
:10252000820E1724266EFF0E1820276EADEF12F0D4
:10253000D89022362336243625361FAEA2EF12F06D
:10254000A4EF12F0A5EF12F02280D8901C361D36B1
:102550001E361F362606D8A0270624AEB2EF12F08C
:10256000B4EF12F098EF12F0000E206E1FAEBBEF2A
:1025700012F0BDEF12F0E1EF12F0FF0E1C14176E17
:10258000FF0E1D14186EFF0E1E14196E7F0E1F1401
:102590001A6E1750181019101A10D8B4D2EF12F082
:1025A000D4EF12F0D8EF12F0010E206EE1EF12F02E
:1025B00022A0DDEF12F0DFEF12F0E1EF12F0D4EF26
:1025C00012F02050D8B4E7EF12F0E9EF12F00DEF5F
:1025D00013F0010E2226000E23222422252225A0FC
:1025E000F4EF12F0F6EF12F00DEF13F022C017F037
:1025F00023C018F024C019F025C01AF01A341A327A
:1026000019321832173217C022F018C023F019C03F
:1026100024F01AC025F0264A272A27BE18EF13F007
:10262000275008E12628D8A018EF13F01AEF13F06E
:1026300024EF13F0000E226E000E236E800E246E27
:102640007F0E256E52EF13F027BE31EF13F02750A7
:1026500006E12604D8B02FEF13F031EF13F03DEF71
:1026600013F0000E226E000E236E000E246E000E7C
:10267000256E000E1B6E52EF13F026C021F0FF0EE8
:102680002216FF0E23167F0E2416000E251621A0FB
:102690004CEF13F04EEF13F04FEF13F0248ED89061
:1026A0002130256E1B50251222C00FF023C010F0E0
:1026B00024C011F025C012F012002B50800B386E90
:1026C0002B502B243F6E2AAE68EF13F06AEF13F005
:1026D0006BEF13F03F803F50D8B471EF13F073EFFE
:1026E00013F088EF13F03F28D8A479EF13F07BEFB5
:1026F00013F083EF13F0000E286E000E296E000E0B
:102700002A6E000E2B6E2A8E000E2B6E90EF13F0A9
:10271000000E286E000E296E000E2A6E000E2B6E23
:102720002F50800B381A2F502F24406E2EAE9BEF67
:1027300013F09DEF13F09EEF13F040804050D8B49B
:10274000A4EF13F0A6EF13F0BBEF13F04028D8A4CA
:10275000ACEF13F0AEEF13F0B6EF13F0000E2C6EEB
:10276000000E2D6E000E2E6E000E2F6E2E8E000EA1
:102770002F6EC3EF13F0000E2C6E000E2D6E000EA8
:102780002E6E000E2F6E2C502D102E102F10D8A450
:10279000CCEF13F0CEEF13F0E6EF13F0000E286E3F
:1027A000000E296E000E2A6E000E2B6E800E2A126D
:1027B0007F0E2B1238502B1228C028F029C029F088
:1027C0002AC02AF02BC02BF029EF15F03F50D8A4D7
:1027D000ECEF13F0EEEF13F0F8EF13F0000E286EAD
:1027E000000E296E000E2A6E000E2B6E29EF15F0DA
:1027F00040503FC030F0316A305E000E315A7F0EDB
:102800003024396E000E31203A6E28C034F029C0D1
:1028100035F02AC036F02BC037F0000E286E000EBF
:10282000296E000E2A6E000E2B6E000E3B6E000EFF
:102830003C6E000E3D6E000E3E6E000E406E59EF77
:1028400014F04050D8B427EF14F029EF14F040EF03
:1028500014F0D8903436353636363736D890283698
:1028600029362A362B363EAE38EF14F03AEF14F004
:102870003BEF14F02880D8903B363C363D363E3650
:102880002C50345C2D5035582E5036582F50375818
:10289000D8A04DEF14F04FEF14F058EF14F03E8C29
:1028A0002C50345E2D50355A2E50365A2F50375AF0
:1028B000402A190E40645FEF14F061EF14F021EF2D
:1028C00014F03450351036103710D8B46AEF14F0C5
:1028D0006CEF14F084EF14F03B8084EF14F0D89088
:1028E000283629362A362B363EAE79EF14F07BEFA8
:1028F00014F07CEF14F02880D8903B363C363D36FF
:102900003E363906D8A03A062AAE89EF14F08BEF8E
:1029100014F06FEF14F0000E406E3EAE92EF14F024
:1029200094EF14F0B8EF14F0FF0E3B14306EFF0E6E
:102930003C14316EFF0E3D14326E7F0E3E14336E2A
:102940003050311032103310D8B4A9EF14F0ABEF7F
:1029500014F0AFEF14F0010E406EB8EF14F028A0A1
:10296000B4EF14F0B6EF14F0B8EF14F0ABEF14F0CE
:102970004050D8B4BEEF14F0C0EF14F0E4EF14F000
:10298000010E2826000E29222A222B222BA0CBEF73
:1029900014F0CDEF14F0E4EF14F028C030F029C0AB
:1029A00031F02AC032F02BC033F0333433323232BC
:1029B0003132303230C028F031C029F032C02AF034
:1029C00033C02BF0394A3A2A3ABEEFEF14F03A50AE
:1029D00008E13928D8A0EFEF14F0F1EF14F0FCEF84
:1029E00014F0000E3A6E3968000E286E000E296E43
:1029F000000E2A6E000E2B6E3ABE09EF15F03A500B
:102A000006E13904D8B007EF15F009EF15F017EF1C
:102A100015F0000E3A6E000E396E000E286E000E94
:102A2000296E000E2A6E000E2B6E000E386E39C015
:102A30003FF03FA01EEF15F020EF15F023EF15F04B
:102A40002A8E24EF15F02A9ED8903F302B6EDAEFB5
:102A500013F01200CBC051F0CCC052F0CDC053F0F7
:102A6000CEC054F041C051F042C052F043C053F0C8
:102A700044C054F0810E456EFF0E466E51C047F0C3
:102A800052C048F053C049F054C04AF0180E4EEFFF
:102A900015F0D8904A32493248324732E82E49EF91
:102AA00015F0475045244F6E000E4620506E50BE24
:102AB00063EF15F0505009E1170E4F5CD8A063EF9B
:102AC00015F065EF15F06FEF15F041C041F042C011
:102AD00042F043C043F044C044F032EF16F050BE21
:102AE00074EF15F076EF15F0E6EF15F04FC045F0F6
:102AF000FF0E466EFF0E476E7F0E486E000E496E4B
:102B0000456685EF15F08DEF15F0493449324832AE
:102B100047324632452E80EF15F046C04BF047C095
:102B20004CF048C04DF049C04EF04B505114456E2A
:102B30004C505214466E4D505314476E4E50541420
:102B4000486E4550461047104810D8A4AAEF15F01B
:102B5000ACEF15F0AEEF15F065EF15F051C045F094
:102B600052C046F053C047F054C048F0200EBEEFAC
:102B700015F0D8904832473246324532E82EB9EF48
:102B800015F04550461047104810D8B4CAEF15F05C
:102B9000CCEF15F0D4EF15F04B5051264C5052228B
:102BA0004D5053224E5054224B1C456E4C1C466EC9
:102BB0004D1C476E4E1C486E4550511646505216DD
:102BC00047505316485054162AEF16F051C045F09E
:102BD00052C046F053C047F054C048F0200EF6EF04
:102BE00015F0D8904832473246324532E82EF1EFA0
:102BF00015F04550461047104810D8A402EF16F0C3
:102C000004EF16F00EEF16F0000E516E000E526E2D
:102C1000000E536E000E546E2AEF16F0D890513409
:102C2000456E5234466E5334476E5434486E4550A8
:102C3000461047104810D8B420EF16F022EF16F0D7
:102C40002AEF16F0000E516E000E526E800E536E7B
:102C5000BF0E546E51C041F052C042F053C043F019
:102C600054C044F01200096E0950D8B43AEF16F07F
:102C70003CEF16F05EEF16F004BE43EF16F041EFA6
:102C800016F05EEF16F001C005F002C006F003C0BA
:102C900007F004C008F0051E061E071E081E052AC0
:102CA000000E06220722082205C00BF006C00CF019
:102CB00007C00DF008C00EF066EF16F001C00BF073
:102CC00002C00CF003C00DF004C00EF00150021061
:102CD00003100410D8A46FEF16F071EF16F07BEF1D
:102CE00016F0000E016E000E026E000E036E000E56
:102CF000046E0CEF17F0960E0A6E85EF16F00A2A96
:102D0000D8900E320D320C320B32000E0B14056EC1
:102D1000000E0C14066E000E0D14076EFE0E0E143F
:102D2000086E0550061007100810D8A49AEF16F088
:102D30009CEF16F07FEF16F0AAEF16F00A2A010EAC
:102D40000B26000E0C220D220E22D8900E320D32D0
:102D50000C320B32000E0B14056E000E0C14066EB6
:102D6000000E0D14076EFF0E0E14086E05500610AF
:102D700007100810D8A4BFEF16F0C1EF16F09EEFB1
:102D800016F0C9EF16F00A06D8900B360C360D3641
:102D90000E360DBECEEF16F0D0EF16F0D8EF16F0CF
:102DA000020E0A60D6EF16F0D8EF16F0C3EF16F059
:102DB0000AB0DDEF16F0DFEF16F0E0EF16F00D9E33
:102DC000D8900A320AC005F0066A076A086A05C088
:102DD00008F0076A066A056A05500B1206500C12C5
:102DE00007500D1208500E120950D8B4FAEF16F021
:102DF000FCEF16F004EF17F004BE03EF17F001EF3D
:102E000017F004EF17F00E8E0BC001F00CC002F0AB
:102E10000DC003F00EC004F01200000E166E000E7E
:102E2000156E000E0F6E000E0E6E19EF17F0084AA9
:102E3000092A010E146E08C0F6FF09C0F7FF08004A
:102E4000F550200AD8B427EF17F029EF17F046EF16
:102E500017F0F70E0A6EFF0E0B6E08C0F6FF09C0E2
:102E6000F7FF0800F5500C6E0D6A0A500C260B5047
:102E70000D220D5009E1050E0C5CD8A042EF17F0B1
:102E800044EF17F046EF17F0000E146E14C010F068
:102E9000116A10501110D8A450EF17F052EF17F02C
:102EA00017EF17F05CEF17F0000E0F6E010E0E6EAD
:102EB000084A092A91EF17F008C0F6FF09C0F7FF8A
:102EC0000800F5500A6E0B6A0B50000AD8B46BEF7D
:102ED00017F091EF17F00A502B0AD8B458EF17F0FB
:102EE000060AD8B454EF17F091EF17F015C001F0AF
:102EF00016C002F0000E046E0A0E036EC6EC1EF041
:102F000008C0F6FF09C0F7FF0800F550015E000E8B
:102F1000025A300E0124156E000E0220166E58EF74
:102F200017F0D00E0A6EFF0E0B6E08C0F6FF09C038
:102F3000F7FF0800F5500C6E0D6A0A500C260B5076
:102F40000D220D500AE10A0E0C5CD8A0AAEF17F072
:102F5000ADEF17F0010EAEEF17F0000E126E136A10
:102F600012501310D8A4B7EF17F0B9EF17F076EF9F
:102F700017F00E500F10D8A4C0EF17F0C2EF17F0E3
:102F8000D0EF17F015C00AF016C00BF00A1E0B1E8A
:102F90000A4A0B2A0AC008F00BC009F0D4EF17F058
:102FA00015C008F016C009F01200033404340A6E8C
:102FB0000A50D8A4DEEF17F0E0EF17F0EAEF17F0B1
:102FC000000E016E000E026E000E036E000E046E07
:102FD00057EF18F001C005F002C006F003C007F07B
:102FE00004C008F0200EFAEF17F0D890083207322C
:102FF00006320532E82EF5EF17F00550096E038E04
:10300000FF0E0116FF0E0216FF0E0316000E041629
:10301000960E0A5E0ABE11EF18F00FEF18F027EFB8
:1030200018F00A50800A970FD8B019EF18F01BEF6C
:1030300018F01DEF18F0E0EF17F0D89004320332CB
:10304000023201320A3E1DEF18F03FEF18F01F0E5A
:103050000A642DEF18F02FEF18F037EF18F0E0EFBB
:1030600017F0D89001360236033604360A060A50A5
:10307000D8A43DEF18F03FEF18F031EF18F00950E9
:10308000D8B445EF18F047EF18F04FEF18F0041ED2
:10309000031E021E016C000E02220322042201C044
:1030A00001F002C002F003C003F004C004F01200FB
:1030B000000E2814306E000E2914316E800E2A1472
:1030C000326E7F0E2B14336E3050311032103310AD
:1030D000D8A46DEF18F06FEF18F077EF18F0000E2E
:1030E000286E000E296E000E2A6E000E2B6E000E4A
:1030F0002C14306E000E2D14316E800E2E14326E94
:103100007F0E2F14336E3050311032103310D8A48C
:103110008CEF18F08EEF18F096EF18F0000E2C6E72
:10312000000E2D6E000E2E6E000E2F6E2BAE9BEF3E
:1031300018F09DEF18F0A6EF18F0286C291ED8B0F3
:10314000292A2A1ED8B02A2A800E2B562FAEABEF82
:1031500018F0ADEF18F0B6EF18F02C6C2D1ED8B0AB
:103160002D2A2E1ED8B02E2A800E2F56000E281A79
:10317000000E291A000E2A1A800E2B1A000E2C1A85
:10318000000E2D1A000E2E1A800E2F1A2C50285CBD
:103190002D5029582E502A582F502B58D8B0D3EFE5
:1031A00018F0D5EF18F0D8EF18F0D890D9EF18F044
:1031B000D8801200CFC00BF0D0C00CF0D1C00DF001
:1031C000D2C00EF001C00BF002C00CF003C00DF035
:1031D00004C00EF00BC005F00CC006F00DC007F0E7
:1031E0000EC008F0180EFAEF18F0D8900832073227
:1031F00006320532E82EF5EF18F00550096E0A6A1E
:1032000009500A10D8A407EF19F009EF19F029EFB7
:1032100019F0D8900B34056E0C34066E0D34076E21
:103220000E34086E0550061007100810D8A41BEFC6
:1032300019F01DEF19F023EF19F0000E026E020EC7
:10324000016E58EF19F0000E026E030E016E58EF7A
:1032500019F009280A10D8A430EF19F032EF19F04C
:1032600054EF19F00BC005F00CC006F00DC007F0CC
:103270000EC008F0090ED890053606360736083617
:10328000E82E3BEF19F00550061007100810D8B4CF
:103290004CEF19F04FEF19F0010E50EF19F0000E3E
:1032A000016E026A58EF19F0000E026E040E016EF4
:1032B0001200056EF00E8316F00E9516959C959AE9
:1032C00095988C9C8C9A8C9809EC1FF0300E0CEC25
:1032D0001EF000D000D000F0300E0CEC1EF000D03C
:1032E00000D000F0320E0CEC1EF0C7EC1DF000090F
:1032F000D8A47DEF19F07FEF19F075EF19F0C7EC46
:103300001DF00009D8A487EF19F089EF19F07FEFBD
:1033100019F005500CEC1EF0C7EC1DF00009D8A404
:1033200094EF19F096EF19F08CEF19F0080E0CECF1
:103330001EF0C7EC1DF00009D8A4A1EF19F0A3EF0F
:1033400019F099EF19F00F0E0CEC1EF0C7EC1DF000
:103350000009D8A4AEEF19F0B0EF19F0A6EF19F0FC
:10336000010E0CEC1EF0C7EC1DF00009D8A4BBEF59
:1033700019F0BDEF19F0B3EF19F0040E0CEC1EF0CC
:10338000C7EC1DF00009D8A4C8EF19F0CAEF19F076
:10339000C0EF19F0800ED8EC1CF0120001C008F04C
:1033A00002C009F003C00AF004C00BF00506D8A063
:1033B0000606052806E10628D8A4E1EF19F0E3EF98
:1033C00019F0F0EF19F0000E026E000E016E38EFEA
:1033D0001AF0084A092A0A4A0B2A0506D8A0060646
:1033E00008C0D9FF09C0DAFFDF50D8B4FAEF19F0EE
:1033F000FCEF19F027EF1AF00AC0F6FF0BC0F7FF39
:103400000800F5500009D8B408EF1AF00AEF1AF0D6
:1034100027EF1AF005500610D8B411EF1AF013EF89
:103420001AF027EF1AF008C0D9FF09C0DAFFDF5001
:10343000076E0AC0F6FF0BC0F7FF0800F55007182B
:10344000D8B425EF1AF027EF1AF0E9EF19F008C009
:10345000D9FF09C0DAFFDF50076E0AC0F6FF0BC0C4
:10346000F7FF0800F550075C016E026AD8A002065B
:10347000120003500410D8B440EF1AF042EF1AF0D3
:103480004BEF1AF003500410D8A449EF1AF04BEF99
:103490001AF050EF1AF0015018EC1FF09DEF1AF0DF
:1034A00020EE04F00350D9260450DA22DE50DE105C
:1034B000D8B45DEF1AF05FEF1AF07AEF1AF020EE51
:1034C00004F00350D9260450DA2210EE02F0035023
:1034D000E1260450E222DE50E65CE650800A096EE6
:1034E000DE50800A0958D8B078EF1AF07AEF1AF057
:1034F0009DEF1AF020EE02F00350D9260450DA2294
:10350000DECF05F0DDCF06F003C0D9FF04C0DAFF3F
:10351000DECF07F0DDCF08F005500724D96E065046
:103520000820DA6E01C0DFFF20EE02F00350D9263A
:103530000450DA22DE2A000EDD2212000001DDA195
:10354000A4EF1AF0A6EF1AF0B0EF1AF013C00AF0C9
:1035500014C00BF011C00CF012C00DF0EAEC1DF01D
:1035600016BEB5EF1AF0B7EF1AF0BDEF1AF015C09E
:103570001AF016C01BF0C1EF1AF0000E1B6E000E01
:103580001A6E000E196E000E186ED3EF1AF0000EB0
:10359000026E200E016E11C003F012C004F039EC6F
:1035A0001AF0184A192A1A50185C1950800A176E16
:1035B0001B50800A1758D8A0E0EF1AF0E2EF1AF07B
:1035C000C7EF1AF00001DDB1E8EF1AF0EAEF1AF0E8
:1035D000F4EF1AF013C00AF014C00BF011C00CF095
:1035E00012C00DF0EAEC1DF013C001F014C002F09F
:1035F0007FEC1EF01A500124116E1B500220126E37
:103600001200000E066E04BE0AEF1BF008EF1BF05E
:1036100010EF1BF0036C041ED8B0042A010E066ED6
:1036200002BE17EF1BF015EF1BF01DEF1BF0016C36
:10363000021ED8B0022A010E061A000E086E000EF5
:10364000076E03500410D8B428EF1BF02AEF1BF0CC
:1036500052EF1BF0010E056E32EF1BF0D8900336CF
:103660000436052A04AE37EF1BF039EF1BF02EEFBE
:103670001BF0D890073608360350015C04500258FE
:10368000D8A045EF1BF047EF1BF04CEF1BF00350A9
:10369000015E0450025A0780D89004320332052E8E
:1036A00039EF1BF00650D8B458EF1BF05AEF1BF05F
:1036B0005EEF1BF0076C081ED8B0082A07C001F0A7
:1036C00008C002F01200000E066E02BE6CEF1BF086
:1036D0006AEF1BF072EF1BF0016C021ED8B0022AD9
:1036E000010E066E04BE79EF1BF077EF1BF07DEF45
:1036F0001BF0036C041ED8B0042A03500410D8B485
:1037000084EF1BF086EF1BF0AAEF1BF0010E056E95
:103710008EEF1BF0D89003360436052A04AE93EFE3
:103720001BF095EF1BF08AEF1BF00350015C045077
:103730000258D8A09EEF1BF0A0EF1BF0A4EF1BF0E7
:103740000350015E0450025AD89004320332052E11
:1037500095EF1BF00650D8B4B0EF1BF0B2EF1BF0A2
:10376000B6EF1BF0016C021ED8B0022A01C001F0B6
:1037700002C002F01200000E0114096E000E0214C5
:103780000A6E800E03140B6E7F0E04140C6E09502B
:103790000A100B100C10D8A4D0EF1BF0D2EF1BF0C6
:1037A000DAEF1BF0000E016E000E026E000E036ECB
:1037B000000E046E000E0514096E000E06140A6E4B
:1037C000800E07140B6E7F0E08140C6E09500A1041
:1037D0000B100C10D8A4EFEF1BF0F1EF1BF0F9EF7A
:1037E0001BF0000E056E000E066E000E076E000E3A
:1037F000086E055001180FE1065002180CE1075041
:10380000031809E108500418D8B409EF1CF00BEFB5
:103810001CF00EEF1CF0D8900FEF1CF0D8801200B7
:1038200030EF1CF0C7EC1DF00009D8A41AEF1CF013
:103830001CEF1CF012EF1CF002C0F6FF03C0F7FFF4
:10384000F86A070EF76403D00800F55005D0F6CFEC
:10385000E9FFF7CFEAFFEF5057EC1DF0024A032AC9
:1038600002C0F6FF03C0F7FFF86A070EF76403D043
:103870000800F55005D0F6CFE9FFF7CFEAFFEF508B
:103880000009D8A446EF1CF048EF1CF012EF1CF022
:103890001200B1C0B5F0B2C0B6F0000E0001D86F92
:1038A000000ED76F67EF1CF0AFC09DF0B0C09EF068
:1038B000B50E9F6F000EA06FB3C0A1F0B4C0A2F010
:1038C00011EC0FF000019D51D7279E51D823B5C0B0
:1038D000F6FFB6C0F7FF0800F5500009D8A473EF53
:1038E0001CF075EF1CF054EF1CF0D7C0AFF0D8C03F
:1038F000B0F01200BF0E096EFF0E0A6E07C00BF08B
:1039000008C00CF009500B260A500C220C500AE19A
:103910001A0E0B5CD8A08FEF1CF092EF1CF0010E7A
:1039200093EF1CF0000E0D6E0E6A0D500E10D8B401
:103930009CEF1CF09EEF1CF0A5EF1CF0200E071072
:10394000076E0850086EA9EF1CF007C007F008C00A
:1039500008F0120003C007F004C008F001C009F02D
:1039600002C00AF00750056E0850066E074A082A82
:1039700005C0F6FF06C0F7FFF86A09C0D9FF0AC004
:10398000DAFF094A0A2A070EF76403D00800F55047
:1039900005D0F6CFE9FFF7CFEAFFEF50DF6EDF503B
:1039A000D8A4D5EF1CF0D7EF1CF0B2EF1CF012003A
:1039B000046EF00E9516F00E83160450016E026A26
:1039C000800E0112000E0212040E036E0234023247
:1039D0000132032EE6EF1CF001500F0B83128C9C7A
:1039E0008C9AFCEC1EF08C88FCEC1EF08C98F00E8F
:1039F000831604500F0B8312FCEC1EF08C88FCEC39
:103A00001EF08C980F0E95121200BB0E0001C16FB4
:103A1000000EC26FB7C0C3F0B8C0C4F0000EC66FCE
:103A2000000EC56F000EC86F000EC76FC30EAF6FDC
:103A3000000EB06FB9C0B1F0BAC0B2F0C10EB36F32
:103A4000000EB46F49EC1CF00001C551B725D96ECA
:103A5000C651B821DA6E000EDF6E1200010E076E3D
:103A6000200E01180210D8B438EF1DF03AEF1DF007
:103A700053EF1DF0F70E036EFF0E046E01C005F04C
:103A800002C006F00350052604500622065009E144
:103A9000050E055CD8A04FEF1DF051EF1DF053EF60
:103AA0001DF0000E076E07C001F0026A1200016EE1
:103AB000C7EC1DF00009D8A460EF1DF062EF1DF007
:103AC00058EF1DF0F00E9516F00E831601380F0B0F
:103AD0000F0B83128C8A8C9CFCEC1EF08C88FCEC07
:103AE0001EF08C98F00E831601500F0B8312FCEC25
:103AF0001EF08C88FCEC1EF08C980F0E95121200B4
:103B0000036E0D0E036487EF1DF089EF1DF08FEF3C
:103B10001DF0000E026E000E016EA3EF1DF0000EF0
:103B2000C26E0344E846FC0BC26EC280C282C2B2BF
:103B30009CEF1DF09EEF1DF097EF1DF0C290C3CFDC
:103B400001F0C4CF02F01200000E2C1A000E2D1A44
:103B5000000E2E1A800E2F1A28C001F029C002F084
:103B60002AC003F02BC004F02CC005F02DC006F0D5
:103B70002EC007F02FC008F0B1EC0CF001C028F007
:103B800002C029F003C02AF004C02BF012008C8C74
:103B90008C9AFCEC1EF08C88FCEC1EF083A6D3EF14
:103BA0001DF0D5EF1DF0E0EF1DF08C98FCEC1EF041
:103BB0008C88FCEC1EF08C988C9C010EE9EF1DF0BB
:103BC0008C98FCEC1EF08C88FCEC1EF08C988C9C85
:103BD000000E1200000E106E000E0F6EFBEF1DF0B7
:103BE0000EC001F0026A0CC003F00DC004F039EC05
:103BF0001AF00F4A102A0F500A24D96E10500B20C9
:103C0000DA6EDF500E6E0E50D8A409EF1EF00BEFE7
:103C10001EF0F0EF1DF01200016EF00E9516F00E82
:103C2000831601380F0B0F0B83128C9C8C9AFCECC3
:103C30001EF08C88FCEC1EF08C98F00E8316015060
:103C40000F0B8312FCEC1EF08C88FCEC1EF08C98A1
:103C50000F0E95121200BF0E036EFF0E046E01C010
:103C600005F002C006F00350052604500622065057
:103C70000AE11A0E055CD8A040EF1EF043EF1EF0DB
:103C8000010E44EF1EF0000E016E026A1200015098
:103C9000021003100410D8B450EF1EF052EF1EF0C3
:103CA0005AEF1EF0000E011A000E021A000E031A3F
:103CB000800E041A01C001F002C002F003C003F03C
:103CC00004C004F01200D00E036EFF0E046E01C09B
:103CD00005F002C006F003500526045006220650E7
:103CE0000AE10A0E055CD8A078EF1EF07BEF1EF00B
:103CF000010E7CEF1EF0000E016E026A120001C080
:103D000003F002C004F087EF1EF0014A022A01C04E
:103D1000D9FF02C0DAFFDF50D8A491EF1EF093EF75
:103D20001EF085EF1EF00350015C016E0450025836
:103D3000026E120003BEA5EF1EF0035008E102045C
:103D4000D8A0A5EF1EF0A7EF1EF0ADEF1EF00450B7
:103D5000C00F0CEC1EF0B1EF1EF00450800F0CEC05
:103D60001EF01200280E59EC19F0C7EC1DF00009E6
:103D7000D8A4BDEF1EF0BFEF1EF0B5EF1EF0060E8B
:103D80000CEC1EF00C0E0CEC1EF0120001500302A5
:103D9000F3CF05F0F4CF06F001500402F3500626ED
:103DA00002500302F350062605C001F006C002F0DF
:103DB0001200C150F00B0C09C16ECF0EC116000EDF
:103DC000C26EC050C70B1809C06EC050F80B050971
:103DD000C06EC08E120001EE00F0500EEE6AE806D2
:103DE000FDE100EECBF02A0EEE6AE806FDE1000EE2
:103DF000F86E000124EF0AF000F000F000F000F08F
:103E000000F000F000F000F000F000F000F000F032
:103E10001200620E016E660EE82EFED7012EFCD750
:103E20001200938093829384F19E010E926E120091
:023E300012007E
:020000040020DA
:08000000FFFFFFFFFFFFFFFF00
:020000040030CA
:0E000000000C181EFF8381FF0FC00FE00F40A1
:00000001FF
