:020000040000FA
:0400000056EF3FF088
:107E7A003F0006005B004F0066006D007D000700B2
:107E8A007F0067000F0EC112000E896E000E8C6E05
:107E9A00000E926E000E956E938093829388F19EE7
:107EAA0012007A0EF66E7E0EF76E000EF86E00EE77
:107EBA0001F010EE14F00900F5CFEEFFE550E150A5
:107ECA00FAE1000169EF3FF047EC3FF081B870EF4B
:107EDA003FF072EF3FF0A5EF3FF089808992000EE4
:107EEA00186E000E176ED8901734D96E1834DA6EE1
:107EFA00010ED926000EDA22DF50836E0D0E166EA1
:107F0A00AF0E156EB60EE82EFED7152EFCD7162E1E
:107F1A00FAD700D0174A182A18BE9DEF3FF018501A
:107F2A0009E10A0E175CD8A09DEF3FF09FEF3FF0E2
:107F3A0078EF3FF0000E836E899089926BEF3FF0E5
:107F4A0081B0AAEF3FF0ACEF3FF0DFEF3FF089904E
:107F5A008982000E1A6E090E196ED8901934D96EDC
:107F6A001A34DA6E010ED926000EDA22DF50836E39
:107F7A000D0E166EAF0E156EB60EE82EFED7152E26
:107F8A00FCD7162EFAD700D01906D8A01A061ABEA0
:107F9A00D9EF3FF01A5006E11904D8B0D7EF3FF0F5
:107FAA00D9EF3FF0B2EF3FF0000E836E89908992CD
:107FBA006BEF3FF081B2E4EF3FF0E6EF3FF0FCEF0A
:107FCA003FF08980898209C083FF0D0E166EAF0EBD
:107FDA00156EB60EE82EFED7152EFCD7162EFAD73A
:107FEA0000D0000E836E899089926BEF3FF06BEFA1
:067FFA003FF000EF00F073
:020000040020DA
:08000000FFFFFFFFFFFFFFFF00
:020000040030CA
:0E000000000C181EFF8381FF0FC00FE00F40A1
:00000001FF
